:020000040800F2
:10000000E88D002061D4010815630008B10F0108D4
:10001000176300081B6300081F630008000000004E
:100020000000000000000000000000002363000842
:100030002563000800000000FB0E0108135C0008A7
:100040007BD401087BD401087BD401087BD4010850
:100050007BD401087BD401087BD401087BD4010840
:100060007BD401087BD401087BD401087BD4010830
:100070007BD401087BD401087BD401087BD4010820
:100080007BD401087BD401087BD401087BD4010810
:100090005D6300087BD401087BD401087BD4010890
:1000A0007BD401087BD401087BD401087BD40108F0
:1000B0007BD401087BD401084D6300087BD4010880
:1000C0007BD401087BD401087BD401087BD40108D0
:1000D0007BD40108276300083B6300083D630008E8
:1000E0007BD401087BD401087BD401087BD40108B0
:1000F0007BD401087BD401087BD401087BD40108A0
:100100007BD401087BD4010865EA01087BD401088F
:100110007BD401087BD401087BD401087BD401087F
:100120007BD401087BD401087BD401087BD401086F
:100130007BD401087BD401087BD401087BD401085F
:100140006D6300087BD401087BD401087BD40108CF
:100150007BD401087BD401087BD401087BD401083F
:100160007BD401087BD401087BD401087BD401082F
:100170007BD401087BD401087BD401087BD401081F
:100180007BD401087BD4010800F002F800F0B9F834
:100190000AA090E8000C82448344AAF10107DA45E2
:1001A00001D100F0AEF8AFF2090EBAE80F0013F07B
:1001B000010F18BFFB1A43F001031847D85A020079
:1001C000F85A02000A444FF0000C10F8013B13F0FB
:1001D000070408BF10F8014B1D1108BF10F8015BA0
:1001E000641E05D010F8016B641E01F8016BF9D193
:1001F00013F0080F1EBF10F8014BAD1C0C1B09D1EA
:100200006D1E58BF01F801CBFAD505E014F8016B5B
:1002100001F8016B6D1EF9D59142D6D370470000ED
:100220000023002400250026103A28BF78C1FBD8FF
:10023000520728BF30C148BF0B6070476E2921F0BC
:10024000FB87702922F03D81662923F0E487652928
:1002500023F0E187672923F0DE87612923F0DD871A
:1002600003681B0A28BF41F08001692921F0A88793
:10027000642921F0A587752921F0A2876F2922F032
:10028000CB80782922F00981E92922F06580E429D0
:1002900022F06280F52922F05F80EF2922F0C880E9
:1002A000F82922F008810368DB0928BF41F08001AA
:1002B000632922F00986732922F00E86E32922F0B1
:1002C0001986F32922F01E86002070471FB523F0FF
:1002D00098FF21F0E1FE04000020002123F002FB42
:1002E000401C60600020002123F028FBE06000201B
:1002F000002123F00DFB206121F05CFD1FBD10B536
:1003000010BD21F0A3FE1146FFF7E0FF00F040F81A
:1003100021F0EAFE03B4FFF7F2FF03BC22F016FE61
:1003200010B514B120460BF0BDF800F053F90020D1
:1003300010BD000004460D4619A009F000FC21463E
:1003400021A009F0FCFB294624A009F0F8FB00BF1E
:10035000FEE710B505F065FC09F021FC06F0B4FFDE
:100360000AF05FFC0BF043FD2149224809F07FFDB4
:100370000AF011FEFFF7D4FF10F061FC1EA00FF091
:10038000D7FF0BF040FD07F02AFA0AF020FE10BD5F
:1003900010B510F09BFDFFF7DCFF002010BD000042
:1003A0000A0D2057726F6E6720706172616D6574FF
:1003B00065722076616C756520646574656374652B
:1003C00064206F6E0D0A000020202020202020666F
:1003D000696C65202025730D0A0000002020202074
:1003E0002020206C696E65202025640D0A00000025
:1003F00000000220E88D0020756172743100000059
:10040000C8200BF007FA204802F03EFB1F48C079D5
:1004100020F00400001D1D49C87100BF4FF0FF31DE
:100420001B4807F027FB00F011F900F0BFF900F0BE
:10043000A9FA00F043FA00F09DFB00F055FE1548C4
:1004400002F0EAF9134802F0B4F901F03EFF00F0BF
:100450009DFE00F0E3F900F098FE00F04EFE01F082
:1004600016F8DBE77CB5044614204FF480630022C5
:100470000949CDE9004009A00BF07BF80546284664
:100480000BF010F87CBD000004260020CC070020F3
:10049000845B0020F8250020010400084C6F676988
:1004A0006300000004F0AEFD21E00A200BF0B2F979
:1004B00055480078401CC0B253490870322190FB67
:1004C000F1F201FB120090B900204F49087005F0CD
:1004D00059F84E48406900F4805020B14FF48050E4
:1004E0004A49488303E04FF4805048490883DCE7D9
:1004F00010B5044600231A4645A1474807F014FAF0
:1005000006F048F945A147A020F0D3FD00220121C3
:10051000202020F0ABF901221146202020F0A6F97E
:10052000022201214FF4707020F0A0F9032208216B
:10053000900220F09BF93BA13CA020F032FB06F09A
:1005400048FFC8200BF066F94FF0FF31324807F042
:1005500091FAC0B94FF47A700BF05CF9012080F386
:10056000138800BF00BFBFF34F8F3148006800F40D
:10057000E06030490843001D2D490860BFF34F8FEC
:1005800000BF00BFFEE710BD7CB5054614200A2160
:100590004FF400630022CDE90010AFF2AB0126A0BA
:1005A0000AF0E7FF044614B120460AF07BFF7CBD49
:1005B0007CB5044614204FF4007300222049CDE995
:1005C000004020A00AF0D5FF054615B128460AF0E4
:1005D00069FF7CBD10B50A20FFF7D6FF1220FFF798
:1005E000E7FF082002F0F5FB0F201CF06FFF0A2048
:1005F00003F04FFC0C20FFF735FF14201FF06BFFBA
:1006000014201EF007FB10BD010000200000024076
:100610007265736574000000AC07002061743435A6
:1006200000000000666C61736800000066730000E3
:100630000CED00E00000FA05696E6974000000002E
:10064000A50400086379636C65000000F748007832
:10065000F749B1F8461160F30001F548A0F84611DA
:10066000F24800784108F248B0F8460161F34100D1
:10067000EF49A1F84601ED4800788108EC48B0F850
:10068000460161F38200EA49A1F84601E748007893
:10069000C108E748B0F8460161F3C300E449A1F896
:1006A0004601E24800780109E148B0F8460161F3EB
:1006B0000410DF49A1F84601DC4800784109DC4814
:1006C000B0F8460161F34510D949A1F84601D74871
:1006D00000788109D648B0F8460161F38610D44904
:1006E000A1F84601D1480078C109D148B0F84601C7
:1006F00061F3C710CE49A1F84601CC480088410BF0
:10070000CB48B0F8460161F30820C949A1F8460179
:10071000C6480088810BC648B0F8460161F34920FD
:10072000C349A1F84601C1480088C10BC048B0F8D0
:10073000460161F38A20BE49A1F84601BB48807892
:100740008108BB48B0F8460161F3CB20B849A1F855
:100750004601B6488078C108B548B0F8460161F353
:100760000C30B349A1F84601B04880780109B0487F
:10077000B0F8460161F34D30AD49A1F84601AB48F0
:1007800080784109AA48B0F8460161F38E30A84943
:10079000A1F84601A54880788109A548B0F846012E
:1007A00061F3CF30A249A1F846017047A148008DFE
:1007B0009F49A1F826019F48418D9D48A0F8281126
:1007C0009C48818D9A48A0F82A119A48018B984834
:1007D000A0F82C119748418B9548A0F82E11954808
:1007E000818B9348A0F830119248C18B9048A0F8B3
:1007F00032119048018C8E48A0F834118D48418CFC
:100800008B48A0F836118B48818C8948A0F83811A4
:100810008848C18C8648A0F83A117047844890F8FF
:1008200048018249898860F30001804881808048BE
:1008300090F8480141087D48808861F341007B4978
:1008400088807B4890F8480181087848808861F367
:10085000820076498880764890F84801C10873483C
:10086000808861F3C30071498880714890F848011D
:1008700001096E48808861F304106C4988806C48D7
:1008800090F8480181096948808861F386106749BA
:100890008880674890F84801C1096448808861F3FE
:1008A000C710624988806248B0F84801010A5F4871
:1008B000808861F308205D498880704710B5182250
:1008C0005D495E4821F065F818225B4918315B48A4
:1008D000183021F05EF8182257493031574830302F
:1008E00021F057F81822544948315448483021F033
:1008F00050F81822504960315048603021F049F8D2
:1009000018224D4978314D48783021F042F81822AC
:10091000494990314948903021F03BF81822464926
:10092000A8314648A83021F034F818224249C03195
:100930004248C03021F02DF818223F49D8313F48B5
:10094000D83021F026F83E48B0F858133848A0F8BF
:100950003C113B48B0F85A133548A0F83E113848CE
:10096000B0F85C133248A0F840113548B0F85E1377
:100970002F48A0F842113248B0F860132C48A0F874
:10098000441110BD70B5002405E02E48005D00B193
:1009900003E0601CC4B20D2CF7DB00BF002C74D147
:1009A0002948B0F88A61B0F88C51062E7AD2DFE877
:1009B00006F0790316294D60012D07D11C48808C63
:1009C00020F00100401C1A49888407E0022D05D15F
:1009D0001748808C20F001011548818463E0012DC7
:1009E00007D11348808D20F00100401C10498885F4
:1009F00007E0022D05D10E48808D20F001010C4842
:100A0000818550E0012D07D10948808E20F001003A
:100A1000401C0749888607E0022D05D10448808ED6
:100A200020F00101024881863DE000002C040020F6
:100A3000CC07002078540020CC52002092090020DE
:100A4000DC5000201077002094750020012D07D184
:100A5000FE48808F20F00100401CFC49888707E099
:100A6000022D05D1F948808F20F00101F7488187D8
:100A700019E0012D0BD1F548B0F8440020F0010039
:100A8000401CF249A1F844000BE011E00AE0022DFD
:100A900007D1EE48B0F8440020F00101EB48A0F87F
:100AA000441000E000BF00BF0021E948015560E0AC
:100AB000012C24D10020E5498880E648B0F88E61F9
:100AC000B0F89051062E14D2DFE806F013030609A1
:100AD0000C0FDE4845840DE0DC4845850AE0DB4824
:100AE000458607E0D948458704E0D848A0F8425039
:100AF00000E000BF00BF0021D548015539E0022CBD
:100B00000BD10120D1498880D248B0F89211CF484A
:100B100041830021CE4801552BE0032C0BD102204C
:100B2000CA498880CB48B0F89411C8488183002115
:100B3000C74801551DE0042C07D11E21C64802F00C
:100B400031FA0021C248015513E0052C03D10021E0
:100B5000BF4801550DE0062C06D11C22BC491E31B0
:100B6000BE4820F016FF04E00C2C02D10021B8484A
:100B7000015570BD10B5B54C4A34B44890F8CA015F
:100B8000B249898C60F38201B048818490F8CA012F
:100B90004108AE48808C61F3C300AC4988840846A4
:100BA000B0F8C801C10BA948808C61F30410A749B3
:100BB00088840846B0F83C01B0F5FA6F01DD0121E8
:100BC00000E00021A148808C61F341009F498884A6
:100BD000084690F8E211808D61F382009B49888578
:100BE000084690F8E20141089848808D61F3C300FF
:100BF000964988850846B0F8E001C10B9348808D7E
:100C000061F30410914988850846B0F83E01B0F5BB
:100C1000FA6F01DD012000E000208C49898D60F32E
:100C200041018A48818590F8FA018849898E60F3EC
:100C300082018648818690F8FA0141088348808EB7
:100C400061F3C300814988860846B0F8F801C10BFA
:100C50007E48808E61F304107C4988860846B0F88F
:100C60004001B0F5FA6F01DD012000E00020774976
:100C7000898E60F341017548818690F81212808F49
:100C800061F3820071498887084690F81202410892
:100C90006E48808F61F3C3006C4988870846B0F8BE
:100CA0001002C10B6948808F61F30410674988877F
:100CB0000846B0F84201B0F5FA6F01DD012100E00D
:100CC00000216248808F61F34100604988870846AF
:100CD00090F82A12B0F8440061F382005B49A1F851
:100CE0004400084690F82A0241085848B0F84400E9
:100CF00061F3C3005549A1F844000846B0F8280242
:100D0000C10B5248B0F8440061F304104F49A1F8F8
:100D100044000846B0F84401B0F5FA6F01DD012146
:100D200000E000214948B0F8440061F34100474920
:100D3000A1F844004A498888C11700EB11610912E3
:100D400021804249C88CC11700EB117109116180E3
:100D50003E49C88CC11700EB11710911E1803B4974
:100D6000C88CC11700EB1171091161813749C88C1A
:100D7000C11700EB11710911E1813449C88CC11709
:100D800000EB117109116182304890F8CA0100F03E
:100D900001012E4890F8CA01C0F340000844A08029
:100DA0002A4890F8E20100F00101284890F8CA01B1
:100DB000C0F3400008442081244890F8FA0100F074
:100DC0000101224890F8CA01C0F340000844A08104
:100DD0001E4890F8120200F001011C4890F8CA0168
:100DE000C0F3400008442082184890F82A0200F01E
:100DF0000101164890F8CA01C0F340000844A082DF
:100E0000124890F84601E18A60F30001E1820F4840
:100E100090F846014108E08A61F34100E0820B4806
:100E200090F846018108E08A61F38200E082074879
:100E300090F84601C108E08A61F3C300E0820348EC
:100E400090F846010109E08A0CE00000CC07002080
:100E50001077002094750020DC5000204E090020FF
:100E6000F825002061F30410E082F94890F846016B
:100E70004109E08A61F34510E082F54890F84601A7
:100E80008109E08A61F38610E082F14890F846011A
:100E9000C109E08A61F3C710E082ED48B0F846016D
:100EA000410AE08A61F34920E082E948B0F846014E
:100EB000810AE08A61F38A20E082E548B0F84601C1
:100EC000C10AE08A61F3CB20E082E148B0F8460134
:100ED000010BE08A61F30C30E082DD48B0F8460196
:100EE000410BE08A61F34D30E082D948B0F8460109
:100EF000810BE08A61F38E30E082D548B0F846017C
:100F0000C10BE08A61F3CF30E082D148C079218BF8
:100F100060F341012183CE4880798109208B61F300
:100F200000002083207E00F0010028B9C948B0F8F5
:100F300086130120884308B1012000E00020218BA6
:100F400060F3C3012183207E00F0010028B9C1486D
:100F5000B0F886130220884308B1012000E0002089
:100F6000218B60F304112183207E00F0010028B959
:100F7000B848B0F886130420884308B1012000E087
:100F80000020218B60F345112183207E00F00100B9
:100F900028B9B048B0F886130820884308B101206A
:100FA00000E00020218B60F386112183207E00F079
:100FB000010028B9A748B0F886131020884308B16B
:100FC000012000E00020218B60F3C7112183A0489D
:100FD000B0F8260160839E48B0F82801A0839C48A1
:100FE000B0F82A01E0839A48B0F83C012084984880
:100FF000B0F83E0160849648B0F84001A08494485F
:10100000B0F84201E0849248B0F84401208590484D
:10101000B0F82C0160858E48B0F82E01A0858C4870
:10102000B0F83001E0858A48B0F83201208688485F
:10103000B0F8340160868648B0F83601A08684484E
:10104000B0F83801E0868248B0F83A01208782483B
:10105000007884F83A00804841783B2001557E486A
:1010600081783C2001557C48C1783D2001557A4863
:1010700001793E200155784841793F200155774854
:10108000B0F8560624F8400F7548408860807448D0
:101090008088A0807248C088E080714800892081E3
:1010A000403C18226F4904F1640020F072FC1822C1
:1010B0006C49183104F17C0020F06BFC182269495E
:1010C000303104F1940020F064FC18226549483165
:1010D00004F1AC0020F05DFC18226249603104F19B
:1010E000C40020F056FC10BD10B500F005FA00F069
:1010F000B0FE5D4801F0D0FC10BD10B51822594972
:10110000F0315A4820F045FC182259495748183008
:1011100020F03FFC1822564918315448303020F056
:1011200038FC1822524930315048483020F031FC08
:1011300018224F4948314D48603020F02AFC4D4874
:101140004349D1F89E218264D1F8A211C16448308C
:101150003F49D1F8A6218260D1F8AA11C1603C496B
:10116000D1F8AE210261D1F8B21141613849D1F80C
:10117000B6218261D1F8BA11C1613549D1F8BE21D9
:101180000262D1F8C211416210BD704710B5062449
:1011900005E03948005D00B103E0601CC4B20C2CCE
:1011A000F7DB00BFA01F06286AD2DFE800F00324A7
:1011B0006A95C4F41C222B49603901F11C0020F00F
:1011C0002EFBB8B11C2227494439A1F11C0020F0A4
:1011D000E0FB1C2223494439A1F1380020F0D9FB5F
:1011E0001B48C07920F00200801C1949C8710021F9
:1011F00021480155FFE01C221A4978311E483A3037
:1012000020F00DFB18B318221B493A311848183842
:1012100020F0BFFB182216491839144820F0B9FBFA
:101220001648007848B90F210A4801F0BBFE134860
:101230000078401C1149087009E01921054801F0A7
:10124000B1FE00210C48015500200C490870D2E085
:10125000CC070020DC500020765A0020FA1A00202B
:10126000502100209209002004260020BC530020B9
:101270009A0A00205C520020107700200200002013
:10128000B8E01C229149924820F0C9FA18B31822FC
:101290008F498E48783020F07CFB18228B497831BA
:1012A0008C4820F076FB8C48007848B910218B4898
:1012B00001F078FE88480078401C874908700AE0F1
:1012C0001A21864801F06EFE0021814852380155EE
:1012D0000020814908708EE01C227C4918317C482E
:1012E000183020F09CFA28B3182279491831774831
:1012F000903020F04EFB1822744990317548183018
:1013000020F047FB7648007848B91121734801F076
:1013100049FE73480078401C714908700AE01B219F
:101320006E4801F03FFE0021694852380155002007
:101330006B4908705FE01C226449303164483030EA
:1013400020F06DFA28B31822614930315F48A83087
:1013500020F01FFB18225D49A8315E48303020F094
:1013600018FB6048007848B912215C4801F01AFE69
:101370005C480078401C5B4908700AE01C21574813
:1013800001F010FE00215248523801550020554905
:10139000087030E0FFE71C224C4948314C48483087
:1013A00020F03DFA28B31822494948314748C03057
:1013B00020F0EFFA18224549C0314648483020F065
:1013C000E8FA4948007848B91321444801F0EAFD99
:1013D00045480078401C444908700AE01D213F48F8
:1013E00001F0E0FD00213A485238015500203E4905
:1013F000087000E000BF00BF10BD2DE9F0410546B8
:101400001C243AA005F090FF0746204608F09EFDF8
:10141000064622462946304608F025F8234632463D
:101420000121384606F0AEF8304608F065FFBDE809
:10143000F0812DE9F0412E4C1C254FF4007008F08E
:1014400085FD064629A005F06FFF8046284608F076
:101450007DFD07464FF400733246D901404606F041
:1014600064F82A4606F10801384607F0FCFF2A46D0
:101470003946204607F0F7FF1C22214604F13800C8
:1014800020F087FA384608F037FFBDE8F08110B544
:101490001848C079C0F3400048B11648C07920F020
:1014A00002001449C8711248FFF7A7FF0CE0114869
:1014B000C079C0F3800038B10E48C07920F0040034
:1014C0000C49C871FFF7B5FF10BD0000220A0020CB
:1014D00062770020D453002003000020DC5000205D
:1014E00004000020050000200600002066730000B4
:1014F00016090020CC070020FC488079C0F380103A
:1015000020B15521FA48A0F88E1503E00021F848D3
:10151000A0F88E15F548C07900F0010020B15521E2
:10152000F348A0F88E1503E00021F148A0F88E15CD
:10153000F048008C552803DD5520EF49888002E0F3
:101540000020ED498880EB48408C552803DD55206C
:10155000E949C88002E00020E749C880E548008CDE
:101560000A2803DDE348008CAA2803DB5520E24962
:10157000088102E00020E0490881DE48408C0A280A
:1015800003DDDC48408CAA2803DB5520DA4948817A
:1015900002E00020D8494881D648808B0A2803DD24
:1015A000D448808BAA2803DB5520D349888102E0E8
:1015B0000020D1498881CF48C08B0A2803DDCD485F
:1015C000C08BAA2803DB5520CB49C88102E000204C
:1015D000C949C881C748808C0A2803DDC548808C6A
:1015E000AA2803DB5520C449088202E00020C24932
:1015F0000882C048C08C0A2803DDBE48C08CAA28D7
:1016000003DB5520BC49488202E00020BA494882E9
:10161000B648B0F84601C0F30020B44991F848112B
:10162000C1F38011884203D05520B349888202E07B
:101630000020B1498882AD48B0F84601C0F340208F
:10164000AA4991F84811C1F3C011884203D055202E
:10165000A949C88202E00020A749C882A348B0F87F
:101660004601C0F38020A149B1F84811C1F300211F
:10167000884203D05520A049088302E000209E49FB
:1016800008839A48B0F84601C0F3C020974991F802
:10169000481101F00101884203D055209649488342
:1016A00002E00020944948839048B0F84601C0F316
:1016B00000308E4991F84811C1F34001884203D0AF
:1016C00055208D49888302E000208B498883874814
:1016D000B0F84601C0F34030844991F84811C1F395
:1016E0008001884203D055208349C88302E000204E
:1016F0008149C8837D48B0F84601C0F380307B49FA
:1017000091F84811C1F3C001884203D055207A49AD
:10171000088402E0002078490884744890F8480161
:10172000C0F300107149B1F84611B0EBD13F03D0BE
:1017300055207149488402E000206F4948846B4875
:10174000B0F8260144F62061884210DC67488079B1
:10175000C0F3800078B16548B0F82601B0F5FA7F93
:1017600009DA6248B0F82A01B0F57A7F03DD552026
:101770006149888402E000205F4988845B48B0F8B2
:10178000280144F62061884210DC58488079C0F373
:10179000800078B15548B0F82801B0F5FA7F09DA31
:1017A0005248B0F82A01B0F57A7F03DD552052493E
:1017B000C88402E000205049C8844C48B0F82A018F
:1017C00044F62061884210DC48488079C0F38000EC
:1017D00078B14648B0F82A01B0F5FA7F09DA4348F3
:1017E000B0F82601B0F57A7F03DD5520424908851F
:1017F00002E00020404908853C48B0F826013B49FA
:10180000B1F84A11884203DA55203B49488502E085
:101810000020394948853548B0F828013349B1F8E6
:101820004A11884203DA55203349888502E00020B6
:10183000314988852D4890F8280000F0010018B142
:1018400055202D49488602E000202B49488627482C
:1018500090F8300000F0010018B155202649888624
:1018600002E0002024498886204890F8380000F0E3
:10187000010018B155202049C88602E000201E4909
:10188000C8861A4890F8400000F0010018B15520B1
:101890001949088702E0002017490887134890F883
:1018A000480000F0010018B155201349488702E0B4
:1018B0000020114948870D4890F84601C0F34000C8
:1018C00020B955200C49A1F8400003E000200A4946
:1018D000A1F84000054890F84601C0F3800068B9BF
:1018E00055200549A1F842000CE00000CC0700207B
:1018F000FA1A002078540020882000200020FD499A
:10190000A1F84200FC4890F84601C0F3C00020B99D
:101910005520F849A1F8440003E00020F549A1F85A
:101920004400F54890F84601C0F3001020B9552056
:10193000F049A1F8460003E00020EE49A1F8460076
:10194000ED4890F84601C0F3401020B95520E94910
:10195000A1F8480003E00020E649A1F84800E64865
:1019600090F84601C0F3801020B95520E149A1F854
:101970004A0003E00020DF49A1F84A00DE4890F861
:101980004601C0F3C01020B95520DA49A1F84C0037
:1019900003E00020D749A1F84C00D748B0F8261141
:1019A000B0F84C01814204DB5520D249A1F84E0029
:1019B00003E00020CF49A1F84E00CF48B0F828112D
:1019C000B0F84C01814204DB5520CA49A1F850000F
:1019D00003E00020C749A1F85000C748B0F82A1119
:1019E000B0F85201814204DB5520C249A1F85200EF
:1019F00003E00020BF49A1F85200BF48B0F82A1107
:101A0000B0F85001814204DC5520BA49A1F85400D5
:101A100003E00020B749A1F85400B748B0F83C11E2
:101A2000B0F85401814204DB5520B249A1F85600B8
:101A300003E00020AF49A1F85600AF48B0F83E11CE
:101A4000B0F85601814204DB5520AA49A1F858009C
:101A500003E00020A749A1F85800A748B0F84011BA
:101A6000B0F85801814204DB5520A249A1F85A0080
:101A700003E000209F49A1F85A009F48B0F84211A6
:101A8000B0F85A01814204DB55209A49A1F85C0064
:101A900003E000209749A1F85C009748B0F8441192
:101AA000B0F85C01814204DB55209249A1F85E0048
:101AB00003E000208F49A1F85E008F48B0F8301194
:101AC000B0F86201814204DB55208A49A1F8600028
:101AD00003E000208749A1F860008748B0F8321180
:101AE000B0F86201814204DB55208249A1F862000E
:101AF00003E000207F49A1F862007F48B0F8381168
:101B0000B0F86401814204DB55207A49A1F86400F1
:101B100003E000207749A1F864007748B0F83A1153
:101B2000B0F86401814204DB55207249A1F86600D7
:101B300003E000206F49A1F866006F48C07900F00B
:101B4000010058B96C48B0F83C0143F6982188422E
:101B500004DD55206749A1F8680016E0664890F852
:101B60002400C0F3800080B16348B0F83C01B0F5B8
:101B7000FA7F0ADD6048B0F83C0142F6E061884235
:101B800003DA00205B49A1F868005B48C07900F0E7
:101B9000010058B95848B0F83E0143F698218842F0
:101BA00004DD55205349A1F86A0016E0524890F828
:101BB0002C00C0F3800080B14F48B0F83E01B0F572
:101BC000FA7F0ADD4C48B0F83E0142F6E0618842F7
:101BD00003DA00204749A1F86A004748C07900F0BD
:101BE000010058B94448B0F8400143F698218842B2
:101BF00004DD55203F49A1F86C0016E03E4890F8FE
:101C00003400C0F3800080B13B48B0F84001B0F52B
:101C1000FA7F0ADD3848B0F8400142F6E0618842B8
:101C200003DA00203349A1F86C003348C07900F092
:101C3000010058B93048B0F8420143F69821884273
:101C400004DD55202B49A1F86E0016E02A4890F8D3
:101C50003C00C0F3800080B12748B0F84201B0F5E5
:101C6000FA7F0ADD2448B0F8420142F6E06188427A
:101C700003DA00201F49A1F86E001F48C07900F068
:101C8000010058B91C48B0F8440143F69821884235
:101C900004DD55201749A1F8700016E0164890F8A9
:101CA0004400C0F3800080B11348B0F84401B0F59F
:101CB000FA7F0ADD1048B0F8440142F6E06188423C
:101CC00003DA00200B49A1F870000B488079C0F3BB
:101CD000401030BB08488079C0F3800008BB06483C
:101CE000B0F82C01B0F57A7F08DD55200149A1F844
:101CF00072000CE088200020CC070020BC48B0F81F
:101D00002C01C82803DA0020BA49A1F87200B848AB
:101D1000B0F82E01B0F57A7F04DD5520B549A1F861
:101D2000740008E0B248B0F82E01C82803DA002099
:101D3000B049A1F87400AE488079C0F3C00058B132
:101D4000AB48B0F82C11B0F86001814204DD552099
:101D5000A849A1F876000FE0A5488079C0F3C0003B
:101D600050B1A348B0F82C11B0F86001814203DAF9
:101D70000020A049A1F876009D488079C0F3C000FA
:101D800058B19B48B0F82E11B0F86001814204DDD3
:101D900055209849A1F878000FE095488079C0F364
:101DA000C00050B19248B0F82E11B0F860018142E5
:101DB00003DA00208F49A1F878008D4890F82800B8
:101DC000C0F3400020B155208A49A1F87A0003E011
:101DD00000208849A1F87A00854890F83000C0F3C7
:101DE000400020B155208349A1F87C0003E0002089
:101DF0008049A1F87C007E4890F83800C0F340008C
:101E000020B155207B49A1F87E0003E000207949EC
:101E1000A1F87E00764890F84000C0F3400020B161
:101E200055207449A1F8800003E000207149A1F811
:101E300080006F4890F84800C0F3400020B1552062
:101E40006C49A1F8820003E000206A49A1F88200F1
:101E5000704770B52DED048B0024A8E02046E117F3
:101E600004EB1171C1F30715E11704EB11710911AE
:101E7000A4EB0111CEB25F4830F8140055286FD1A1
:101E80005D4800EBC40090ED001BB0EE410AF0EE9F
:101E9000610A9FED5A1B53EC112B51EC100B21F0F2
:101EA00075FF41EC180B21F0F5FE564921F814009E
:101EB00001F5E87030F815000121B1400840002814
:101EC00073D1514800EBC40090ED001BB0EE410A05
:101ED000F0EE610A9FED491B53EC112B51EC100BF6
:101EE00021F054FF41EC180B4249843931F81400B9
:101EF00021F0FDFE41EC190B53EC182B21F00AFFE9
:101F000009D23C48843830F81400401C39498439DF
:101F100021F8140049E03748C83030F81500012195
:101F2000B14008433349C83121F81500022D3CDB8C
:101F3000A81E0A3131F810000121B140084382B2D5
:101F4000A81E2C49D23121F81020A1F5B350B0F8C9
:101F5000800C401CA1F5B351A1F8800C25E0FFE7EF
:101F600000202449843921F8140001F5A67030F8C6
:101F700015000121B1400840B8B1224830F81400E2
:101F8000002807DD1F4830F81400401E1D4921F8C5
:101F900014000AE01748C83030F815000121B1409C
:101FA00088431449C83121F81500601CC4B2422C82
:101FB000FFF654AF0F48C830808870B90D48C8305C
:101FC000C08850B90B48C830008930B908488079BA
:101FD00020F002000649887106E00548807920F06B
:101FE0000200801C02498871BDEC048B70BD7047F3
:101FF000CC070020882000203044020800000000A8
:1020000000005940801F00202042020810B50446FD
:1020100020698078C0F3800030B10020E16808704A
:102020002178CB4800F0BEFFC820E0804FF4FA7062
:10203000208110BD10B5044620698078C0F34000AF
:1020400060B320698078C0F3800098B920698079F6
:10205000C0F3800070B9E088002803DDE088401EEE
:10206000E0802FE00120E16808702178B84800F096
:1020700099FF27E020698078C0F3C00010B3208961
:10208000002803DD2089401E20811BE00020E1683C
:1020900008702178AE4800F085FF13E02069807851
:1020A000C0F3800030B10020E16808702178A848B2
:1020B00000F078FF0020E1680870C820E0804FF44D
:1020C000FA70208110BD10B5044620698078C0F3F5
:1020D000800030B10020E168087021789C4800F051
:1020E00061FF0020E1680870C820E0804FF4FA70BA
:1020F000208110BD10B5044620698078C0F38000AF
:1021000038B90120E16808702178914800F04AFF51
:1021100010BD0120E1680870C820E0804FF4FA701B
:10212000208100BFF4E710B5044620698078C0F331
:10213000800030B10020E16808702178844800F008
:1021400031FFC820E0804FF4FA70208110BD10B537
:102150000446A088062818D2DFE800F01703070B12
:102160000F132046FFF7DFFF10E02046FFF7C2FF06
:102170000CE02046FFF7A7FF08E02046FFF75AFFD4
:1021800004E02046FFF742FF00E000BF00BF10BDA3
:10219000418831B1102925D020294FD0302970D164
:1021A00070E001698978C1F3001121B130214180CB
:1021B0000521818015E001690988012904D12021C8
:1021C0004180042181800CE001690988022904D141
:1021D000102141800221818003E000214180012102
:1021E000818064E05B4991F82410C1F3001121B1B2
:1021F00030214180052181801FE057498988B1F550
:10220000007F04D0002141800121818015E0016917
:102210000988012904D120214180042181800CE01A
:1022200001690988032904D110214180032181809B
:1022300003E0102141800221818038E0454991F876
:102240002410C1F3001121B130214180052181808A
:1022500016E041498988B1F5007F04D00021418012
:10226000012181800CE001690988022904D1102133
:1022700041800221818003E020214180042181806E
:1022800015E00FE0334991F82410C1F3001121B992
:10229000002141800121818003E03021418005211E
:1022A000818004E0002141800121818000BF00BFC6
:1022B000418802699180704710B504462046FFF7B7
:1022C00067FF2046FFF743FF10BD10B52348FFF717
:1022D000F3FF2348FFF7F0FF2248FFF7EDFF224806
:1022E000FFF7EAFF2148FFF7E7FF10BD10B50370C5
:1022F0000161C260002444800124848010BD00B5C7
:1023000014231B4AA2F5BE711448FFF7EFFF1523F3
:10231000174A0832A2F5BE711148FFF7E7FF1623EE
:10232000134A1032A2F5BE710E48FFF7DFFF1723E4
:102330000F4A1832A2F5BE710B48FFF7D7FF1823DA
:102340000B4A2032A2F5BE710848FFF7CFFF00BD4F
:10235000DC500020CC070020F82500209425002028
:10236000A8250020BC250020D0250020E425002041
:102370006A090020002181804FF48051C18070479C
:10238000FE4991F82410C1F38001002953D1FB4983
:1023900091F82C10C1F3800100294CD1F74991F834
:1023A0003410C1F38001E1BBF44991F83C10C1F352
:1023B0008001B1BBF14991F84410C1F3800181BBA8
:1023C000EE49B1F8481121F08001EC4AA2F8481119
:1023D0001146B1F8481121F48071A2F84811114654
:1023E000B1F8481121F04001A2F848111146B1F8A6
:1023F000481121F00101A2F848111146B1F8481125
:1024000021F00201A2F848111146B1F8481121F05B
:102410000401A2F848111146B1F8481121F0080151
:1024200000E008E0A2F848111146B1F8481121F087
:102430001001A2F8481141F27071018032214180EF
:102440007047CE49B1F8481121F08001CB4AA2F87B
:1024500048111146B1F8481121F48071A2F84811D1
:102460001146B1F8481121F040014031A2F848115D
:102470001146B1F8481121F00101A2F848111146A6
:10248000B1F8481121F00201A2F848111146B1F843
:10249000481121F00401A2F848111146B1F8481181
:1024A00021F00801A2F848111146B1F8481121F0B5
:1024B0001001A2F84811017A21F00101491C0172B2
:1024C0000188002903DD0188491E018034E0017A7A
:1024D00021F00201891C0172A8498979C1F3C00168
:1024E00051B3A649B1F8481121F080018031A34AC7
:1024F000A2F848114188002903DD4188491E418026
:102500001AE09E49B1F8481121F4807101F58071FB
:102510009A4AA2F848111146B1F8481121F0400139
:10252000A2F84811017A21F00401091D017241F25B
:10253000707101803221418070479049B1F8481193
:1025400021F0800180318D4AA2F848111146B1F87E
:10255000481121F4807101F58071A2F848111146EB
:10256000B1F8481121F04001A2F8481141F2707110
:102570000180322141807047804991F82410C1F3D5
:102580008001002953D17D4991F82C10C1F38001BD
:1025900000294CD1794991F83410C1F38001E1BB95
:1025A000764991F83C10C1F38001B1BB734991F8B1
:1025B0004410C1F3800181BB7049B1F8481121F08A
:1025C00080016E4AA2F848111146B1F8481121F471
:1025D0008071A2F848111146B1F8481121F040016C
:1025E000A2F848111146B1F8481121F00101A2F8F2
:1025F00048111146B1F8481121F00201A2F8481122
:102600001146B1F8481121F00401A2F84811114611
:10261000B1F8481121F0080100E008E0A2F84811E3
:102620001146B1F8481121F01001A2F8481141F209
:102630007071018032214180704701464F4A508BB2
:1026400000F001024AB14D4AB2F8482122F040029E
:1026500040324A4BA3F8482107E0484AB2F84821E3
:1026600022F04002454BA3F8482100F002024AB193
:10267000424AB2F8482122F0800280323F4BA3F850
:10268000482107E03D4AB2F8482122F080023B4B46
:10269000A3F8482100F0040252B1384AB2F84821A8
:1026A00022F4807202F58072344BA3F8482107E0CF
:1026B000324AB2F8482122F48072304BA3F8482104
:1026C00000F008024AB12D4AB2F8482122F0010276
:1026D000521C2A4BA3F8482107E0284AB2F84821A7
:1026E00022F00102254BA3F8482100F010024AB164
:1026F000224AB2F8482122F00202921C1F4BA3F892
:10270000482107E01D4AB2F8482122F002021B4B83
:10271000A3F8482100F020024AB1184AB2F8482133
:1027200022F00402121D154BA3F8482107E0134ABA
:10273000B2F8482122F00402104BA3F8482100F01F
:1027400040024AB10D4AB2F8482122F0080208328C
:102750000A4BA3F8482107E0084AB2F8482122F0C2
:102760000802064BA3F8482100F0800262B1034A38
:10277000B2F8482122F01002103201E0CC0700200C
:10278000BF4BA3F8482107E0BD4AB2F8482122F028
:102790001002BB4BA3F8482141F270720A8032222A
:1027A0004A80704700BF41F2707101803221418040
:1027B000704710B50446E088B0F5804F1DD009DCA5
:1027C000B0F5805F0DD0B0F5005F0ED0B0F5405F82
:1027D0001FD10EE0B0F5A04F13D0B0F5C04F18D107
:1027E00013E02046FFF7CCFD14E02046FFF729FE5A
:1027F00010E02046FFF7A1FE0CE02046FFF7BCFEEC
:1028000008E02046FFF719FF04E02046FFF7CAFF63
:1028100000E000BF00BF10BD8188B1F5407F77D0D8
:1028200007DC69B1B1F5807F3DD0B1F5007F70D193
:1028300082E0B1F5806F6DD0B1F5A06FF7D1F6E011
:102840008F498988022906D14FF4A06181804FF415
:10285000C041C18026E08A498988012905D18902C1
:1028600081804FF4A041C1801CE085498979C1F382
:10287000400131B14FF4407181804FF48041C180FB
:1028800010E07F4991F8461101F0010129B14FF4A0
:10289000807181804901C18004E0002181804FF472
:1028A0008051C180E4E076498988022906D14FF43D
:1028B000A06181804FF4C041C1803CE070498988AB
:1028C000012905D1890281804FF4A041C18032E005
:1028D0006B498979C1F3400131B14FF44071818076
:1028E0004FF48041C18026E0654991F8461101F01E
:1028F000010181B9017A21F001010172017A21F00F
:1029000002010172002181804FF48051C18012E0E8
:102910004EE0A7E073E0017AC1F3800131B14FF4DA
:10292000007181804FF44051C18004E04FF4807108
:1029300081804901C1809BE051498988022906D1E3
:102940004FF4A06181804FF4C041C1802FE04C4919
:102950008988012905D1890281804FF4A041C18075
:1029600025E047498979C1F3400131B14FF4407105
:1029700081804FF48041C18019E0414991F84611AE
:1029800001F0010169B9017A21F001010172017AB6
:1029900021F002010172002181804FF48051C18039
:1029A00005E04FF4007181804FF44051C1805FE039
:1029B00033498988022906D14FF4A06181804FF400
:1029C000C041C1801AE02E498988012905D18902B8
:1029D00081804FF4A041C18010E029498979C1F379
:1029E000400129B9002181804FF48051C18005E068
:1029F0004FF4407181804FF48041C18038E020491C
:102A00008988022903D14FF4A06181800EE01C491E
:102A1000898829B9002181804FF48051C18005E067
:102A20004FF4806181804FF4A041C18020E01449BF
:102A3000898B012906D14FF4A06181804FF4C041F8
:102A4000C1800EE00E49898B022905D100218180C9
:102A50004FF48051C18004E0002181804FF4805107
:102A6000C18005E0002181804FF48051C18000BF0A
:102A700000BF704700B50348FFF77CFC00BD0000B5
:102A8000CC070020F825002010B504464FF48050F4
:102A900007F05CFA606010BD2DE9F04104463C4847
:102AA0000068401E3A49086068BB0A200860206838
:102AB000402801D3002000E020682060D4E90021F4
:102AC00001EB82104022334906F0CDFCD4E900032B
:102AD000401C03EB80112068C0F13F00820104F12B
:102AE000080006F0C0FC23685B1C9A01D4E90031A1
:102AF000C3F13F0304F1080C0CEB831006F0B3FCA8
:102B00002068401C206000253CE02846E91705EBC2
:102B10001171C1F30716E91705EB11710911A5EB46
:102B20000111CFB21C4830F816000121B94008400D
:102B300010B319484E3830F81500002809DD164842
:102B40004E3830F81500401E13494E3921F8150053
:102B500017E010484A38C07920F0080008300D49C5
:102B60004A39C8710C4830F816000121B940884331
:102B7000094921F8160007E0A02007494E3921F83D
:102B800015006D1C222DC0DB00BFBDE8F0810000E8
:102B900008000020160800205A210020BE48B0F886
:102BA000860300280EDDBD48406900F4006020B1B6
:102BB0004FF40060B949488308E04FF40060B7491A
:102BC000088303E04FF40060B44908837047002095
:102BD00000BF25E0B24931F81010491C8AB2B04953
:102BE00021F8102031F81010C8290DDBC822AC499B
:102BF00021F81020A849B1F88613012282409143A0
:102C0000A54AA2F8861309E0A349B1F88613012268
:102C1000824092B21143A04AA2F88613411CC8B266
:102C20000628D7DB9C4991F88623202191439D4AB1
:102C3000D27961F300029B49CA719749B1F87813C0
:102C4000491C954AA2F878131146B1F87813C8299F
:102C50000ADBC821A2F878139249897921F0400152
:102C60004031904A917105E08E49897921F0400107
:102C70008C4A9171704710B500BF8B4800F020FF5F
:102C80008A4908600846006840B1084600688849DB
:102C900008608648006800F003FDEEE700218248E6
:102CA00000F00CFF00BF00BF10BD70B5002400BFD6
:102CB000804801F025F88049086008460068F0B1B6
:102CC00000217C4801F01AF87B4800687B490860C5
:102CD000002500BF00257848006800F000FD0428AA
:102CE00009D1032C01DA012500E00025601CC4B2E3
:102CF000012008F08FFD002DECD10024D8E700BFA3
:102D000000BF70BD002301226DA16748783004F038
:102D10000BFE654800F089FE00BF4FF0FF316248AE
:102D2000783004F0A7FEFFF7A6FFF6E700230122A4
:102D300066A16048783004F0F7FD5E4800F095FF2A
:102D400000BF4FF0FF315B48783004F093FEFFF78F
:102D5000ACFFF6E708B56048007800B908BD5F48E9
:102D60004FF0FF330622032100905D4805F04FFB32
:102D700000BFF3E700BFFFF7EDFF5848007800F011
:102D80000100A0B100F060FCFFF721FF554800787A
:102D9000401CC0B253490870322190FBF1F201FB94
:102DA000120020B900204F490870FFF7F7FE4B488A
:102DB000007800F002000028DDD000F057FCDAE7D0
:102DC00010B5002248A1464805F0E0F948490860DE
:102DD00010BD1FB5044600F0F1FDFFF7F1FF14210F
:102DE000A01EC0B24FF40062424BCDE90032CDE9E3
:102DF00002010023AFF2F3023FA1414808F0E8FAD4
:102E00000F204FF400613F4A0023CDE901140092E6
:102E100003903D4A3DA13F4808F0DAFA0A204FF4FA
:102E200000613D4A0023CDE90114009203903B4A22
:102E30003BA13D4808F0CCFA314808F033FB354857
:102E400008F030FB384808F02DFB012022490870BB
:102E50001FBD10B52648006838B91F480078012802
:102E600003D101211E4805F05EFA10BD10B52048BF
:102E7000006838B918480078012803D102211848A1
:102E800005F051FA10BD10B5074800F0B7FD09482C
:102E900000F0D4FE10BD0000DC5000200000024015
:102EA00056540020CC0700200C36002018000020CB
:102EB0001C000020A4360020200000202400002058
:102EC00053656D43616E51527800000053656D4348
:102ED000616E5154780000000C00002010000020AA
:102EE000BC50002028000020455F43616E000000B8
:102EF000140000203C37002043616E52780000002F
:102F00003C3F0020BC3F00202D2D000843616E5443
:102F100078000000BC4700203C480020752D0008C8
:102F200043616E5461736B003C500020FE49416167
:102F30000F21A0F88613704770B504460D4605EBC7
:102F40004501606910F831000321B1EB101F28D151
:102F500005EB4501606900EBC100C068D0B105EB2D
:102F60004501606900EBC100006998B105EB4506B9
:102F7000636903EBC6031A7905EB4506636903EB46
:102F8000C603196905EB4506636903EBC603D868F8
:102F900006F069FA012005EB4502616901EBC20107
:102FA000887270BD70B505460C462A2C05DA21469C
:102FB000DE48FFF7C1FFFFF759FF70BD70B505464A
:102FC000002400BF4BE004EB4401686910F83100B5
:102FD0000221B1EB101F23D104EB4401686900EB1F
:102FE000C100807A012838D104EB44066B6903EBF9
:102FF000C6031A7904EB44066B6903EBC603D96870
:1030000004EB44066B6903EBC60318691EF0C1FCB0
:10301000002004EB4402696901EBC20188721CE0E4
:1030200004EB4401686910F831000121B1EB101F75
:1030300013D104EB44066B6903EBC6031A7904EB66
:1030400044066B6903EBC603196904EB44066B691C
:1030500003EBC603D86806F006FA601CC4B22A2C3B
:10306000B1DB70BD70B5049C082A00DB08226160EA
:103070000425257200256572A27283B17AB11D788C
:10308000E5725E7826739E786673DE78A6731E7985
:10309000E6735E7926749E796674DE79A67470BDD7
:1030A00078B50646DDE90545BDF8000061F303008B
:1030B000ADF80000BDF8000063F30810ADF80000A3
:1030C000BDF8000065F34D20ADF80000BDF802002A
:1030D00064F30400ADF80200BDF8020062F3491089
:1030E000ADF80200009820F0604078BD2DE9FC4763
:1030F00004464FF000080026B1460025002700BF17
:1031000085E005EB4501606910F831000121B1EB64
:10311000101F79D105EB4501606900EBC100C08843
:10312000401C80B205EB4502616901EBC201C88019
:1031300005EB4502616901EBC2010989884200DAA9
:1031400063E0002005EB4502616901EBC201C88024
:1031500005EB4501606900EBC100C06800B954E0AF
:1031600005EB4501606900EBC1000679002749E0E5
:10317000082E05DD4FF00809A6F1080086B202E02E
:1031800006F0FF09002605EB4501606900EBC10070
:10319000807800F01F0005EB4502616901EBC20178
:1031A000497801F01F01CDE9001005EB4503606986
:1031B00000EBC300C07800F01F0205EB4503606917
:1031C00010F8330001093B462046FFF769FF8046AF
:1031D000009405EB4501606900EBC100C06800EB9D
:1031E000C7034A4641462046FFF73CFF05EB450230
:1031F000616911F8321001F00F00214600F077FAF2
:10320000781CC7B2002EB3DC00BF681CC5B22A2DE3
:10321000FFF677AFBDE8FC872DE9FC4704464FF089
:1032200000080026B1460025002700BF83E005EB1B
:103230004501606910F831000321B1EB101F72D114
:1032400005EB4501606900EBC100807A00B970E0D0
:10325000002005EB4502616901EBC201887205EBB4
:103260004501606900EBC100C06840B905EB45014C
:10327000606900EBC1000079002800DD59E005EB32
:103280004501606900EBC1000679002749E0082E7E
:1032900005DD4FF00809A6F1080086B202E006F04D
:1032A000FF09002605EB4501606900EBC10080784D
:1032B00000F01F0005EB4502616901EBC20149788E
:1032C00001F01F01CDE9001005EB4503606900EB3B
:1032D000C300C07800F01F0205EB4503606910F8D9
:1032E000330001093B462046FFF7DAFE8046009492
:1032F00005EB4501606900EBC100C06800EBC70346
:103300004A4641462046FFF7ADFE05EB450261699E
:1033100011F8321001F00F00214600F0E8F9781C96
:10332000C7B2002EB3DC03E02C000020DC500020EC
:1033300000BF681CC5B22A2DFFF679AFBDE8FC8737
:103340002DE9F74304468846474602AE0025B88873
:1033500001287DD100BF9FE005EB4501606910F8B1
:1033600031000221B1EB101F73D105EB45016069FB
:1033700010F8310000F00F00B988884269D105EBE0
:103380004501606900EBC100807800F01F003188C2
:10339000C1F3442188427CD105EB4501606900EB13
:1033A000C100407800F01F00B17801F01F01884291
:1033B0006FD105EB4501606900EBC100C07800F0FA
:1033C0001F007188C1F34411884262D105EB4501A9
:1033D000606900EBC100406900B95BE005EB4501A5
:1033E000606900EBC1002A46314643693846984778
:1033F0009248B0F87803002803DD00208F49A1F837
:10340000780305EB4501606900EBC100807800F0AE
:103410001F00012802D10020A4F87A0305EB450122
:10342000606900EBC100807800F01F00022803D122
:1034300000214FF45F70015305EB4501606900EB1B
:10344000C100807800F01F00032806D1002101E0B0
:1034500026E01EE040F27E30015305EB4501606935
:1034600000EBC100807800F01F00042803D1002188
:103470004FF46070015305EB4501606900EBC1003A
:10348000807800F01F00052803D1002140F282302F
:10349000015300BF681CC5B22A2DFFF65DAF63E083
:1034A000B888022860D129255CE005EB45016069F8
:1034B00010F831000221B1EB101F50D105EB45018E
:1034C000606910F8310000F00F00B988884246D1D9
:1034D00005EB4501606900EBC100807800F01F003A
:1034E0003188C1F34421884239D105EB4501606937
:1034F00000EBC100407800F01F00B17801F01F011F
:1035000088422CD105EB4501606900EBC100C07811
:1035100000F01F007188C1F3441188421FD105EBF0
:103520004501606900EBC100406900B918E005EB96
:103530004501606900EBC1002A46314643693846BF
:10354000984705EB4501606900EBC100807800F009
:103550001F001F2803D100214FF46170015300BFE9
:10356000681CC5B22A2DA0DBBDE8FE8370B50546F8
:103570000E4614463088C0F3041010B900203049BC
:1035800008802E49496904EB440301EBC301CB6871
:103590003188C1F3041103EBC100AA7C05F11301CA
:1035A00005F061FFA87C2649098808442449088061
:1035B0002249496904EB440201EBC2010979481E22
:1035C0003188C1F30411C21700EB5272B1EBE20F64
:1035D00015D11A48406904EB440100EBC1000079A1
:1035E00017490988884207D101201449496904EB29
:1035F000440201EBC201887200201149088070BDAD
:1036000000B50E48FFF792FCAFF29F010D48C0F8DD
:10361000FC12C0F81413C0F82C13C0F84413C0F8FF
:103620005C13C0F87413C0F88C13C0F8A413C0F86E
:10363000BC13C0F8D413C0F8EC1300BDDC5000205C
:103640001C0400202C00002010B53548FFF7B6FC04
:1036500034480078401CC0B2324908700A2801DBA7
:10366000002008702E48FFF741FD10BD10B52C4812
:10367000FFF7D2FD10BD70B505462C46A088012885
:1036800005D121462648E268FFF75AFE07E0A088E8
:10369000022804D121462248E268FFF751FE70BD9E
:1036A00010B504462046FFF7E6FF10BD70B504468E
:1036B000A088012806D104F108011B480FF081F908
:1036C00005460AE0A088022806D104F1080117483F
:1036D0000FF077F9054600E00425284670BD70B567
:1036E00004462046FFF7E2FF0546284670BD70B548
:1036F00004460D462A4621460D4800F020FB70BDC9
:1037000070B504460D462A4621460A4800F0F7F9EE
:103710000348B0F87803401C0149A1F8780370BD54
:10372000DC5000201E0400200064004000680040BF
:10373000A43600200C3600201CB50020009001901B
:103740000121022013F01EF90121480613F0E0F9CF
:103750004FF44070009002208DF804008DF80500B1
:1037600000208DF8060001208DF8070069469E486C
:1037700012F04CF8092208219B4812F084FB092220
:103780001146994812F07FFB0121880613F0C0F919
:103790006020009002208DF804008DF805000020C4
:1037A0008DF8060001208DF8070069468E4812F05A
:1037B0002DF8092205218C4812F065FB092206210B
:1037C000894812F060FB1CBD0EB5002000900190EE
:1037D000029086480EF03EFE68460FF027F8002063
:1037E0008DF8060001208DF8070000208DF80800F4
:1037F0008DF809008DF80A008DF80B008DF8020095
:103800008DF8030003208DF8040000208DF80500DA
:103810000720ADF80000694674480EF03FFE74487A
:103820000EF018FE68460FF001F800208DF8060033
:1038300001208DF8070000208DF808008DF80900A0
:103840008DF80A008DF80B008DF802008DF803004A
:1038500003208DF8040000208DF805000720ADF846
:103860000000694662480EF019FE0EBD1FB500202B
:1038700000900190029003908DF80B0001208DF8CC
:103880000C0000208DF80B0001208DF80C00F820B2
:10389000ADF804000020ADF80600ADF808000120E6
:1038A0008DF80D0000208DF80A008820ADF800008A
:1038B0000020ADF8020068460EF001FF01208DF8EF
:1038C0000A00E820ADF800000020ADF802006846CC
:1038D0000EF0F5FE00208DF80B0001208DF80C0095
:1038E000F820ADF804000020ADF80600ADF808009F
:1038F00001208DF80D000E208DF80A008820ADF80B
:1039000000000020ADF8020068460EF0D8FE0F203F
:103910008DF80A00E820ADF800000020ADF80200A4
:1039200068460EF0CCFE1FBD08B5002000901420A4
:103930008DF8000001208DF8010002208DF80200B2
:1039400001208DF8030068460DF06BFC40208DF8D7
:10395000000001208DF8010002208DF802000120F6
:103960008DF8030068460DF05CFC08BD10B502211F
:103970001E480FF0A2FC60B11E4A00211B480FF048
:103980009AF903F0A2FC1C4908601A490120FFF7CC
:10399000B7FE10BD10B5022115480FF08EFC60B1C6
:1039A000144A002112480FF086F903F08EFC1249E8
:1039B000086010490220FFF7A3FE10BD10B5FFF705
:1039C000BBFEFFF701FFFFF751FFFFF7ADFF01223D
:1039D000022106480FF03FFB0122022104480FF0AC
:1039E0003AFB012010BD00000004024000640040CA
:1039F00000680040645400202004002070474168A3
:103A0000C1604168016100218161704700B50246D3
:103A100002F1240050604C3090601420506100206E
:103A200010601046FFF7EBFF00BD10B504464FF4E1
:103A30000C7006F08BFA606700202062E08320465D
:103A4000FFF7E4FF0120A08378A006F078F810BD0E
:103A500070B504460D46A08B012800D070BD0DF056
:103A600035FA0646D4E90510884205D330460DF0F4
:103A700031FA0120E083F1E7E168081DE0600D60A4
:103A8000A069401CA061D4E90210884201D160689D
:103A9000E060A1692068884201D2A0692060616964
:103AA0002068884202D100BF00BF00BF30460DF041
:103AB00011FA00BFD2E70146C88B7047C183704737
:103AC00070B504460DF002FA0646A06928B9002533
:103AD00030460DF0FFF9284670BD2169081D2061B0
:103AE0000D68A069401EA061A1682069884201D1CB
:103AF0006068206130460DF0EDF92846ECE770B5BE
:103B000004460E461546E08B01287DD0216AC1EBA4
:103B1000C101606F00EB810086802868226AC2EBD9
:103B2000C202616F01EB820188606968226AC2EBA0
:103B3000C202606F00EB8200C160297A226AC2EB88
:103B4000C202606F00EB82000174697A226AC2EBE4
:103B5000C202606F00EB82004174A97A226AC2EB54
:103B6000C202606F00EB82008174E97A226AC2EBC4
:103B7000C202606F00EB8200C174297B226AC2EB33
:103B8000C202606F00EB82000175697B226AC2EBA2
:103B9000C202606F00EB82004175A97B226AC2EB12
:103BA000C202606F00EB82008175E97B226AC2EB82
:103BB000C202606F00EB8200C175297C226AC2EBF1
:103BC000C202606F00EB82000176697C226AC2EB60
:103BD000C202606F00EB82004176A97C226AC2EBD0
:103BE000C202606F00EB82008176E97C226AC2EB40
:103BF000C202606F00EB8200C176226AC2EBC20291
:103C0000606F00EB820100E00EE02046FFF720FF2E
:103C1000206A401C2062206A142801D30020206200
:103C200004F1780003F0CFFF70BD00005175657599
:103C30006520696E6974204F4B2100007047416810
:103C4000C1604168016100218161704700B5024691
:103C500002F1240050604C3090601420506100202C
:103C600010601046FFF7EBFF00BD10B504464FF49F
:103C70000C7006F06BF9606700202062E08320463C
:103C8000FFF7E4FF0120A08374A005F058FF10BDEA
:103C900070B504460D46A08B012800D070BD0DF014
:103CA00015F90646D4E90510884205D330460DF0D3
:103CB00011F90120E083F1E7E168081DE0600D6083
:103CC000A069401CA061D4E90210884201D160685B
:103CD000E060A1692068884201D2A0692060616922
:103CE0002068884202D100BF00BF00BF30460DF0FF
:103CF000F1F800BFD2E70146C88B7047C183704717
:103D000070B504460DF0E2F80646A06928B9002512
:103D100030460DF0DFF8284670BD2169081D20618E
:103D20000D68A069401EA061A1682069884201D188
:103D30006068206130460DF0CDF82846ECE770B59C
:103D400004460E461546E08B01287DD0216AC1EB62
:103D5000C101606F00EB810086802868226AC2EB97
:103D6000C202616F01EB820188606968226AC2EB5E
:103D7000C202606F00EB8200C160297A226AC2EB46
:103D8000C202606F00EB82000174697A226AC2EBA2
:103D9000C202606F00EB82004174A97A226AC2EB12
:103DA000C202606F00EB82008174E97A226AC2EB82
:103DB000C202606F00EB8200C174297B226AC2EBF1
:103DC000C202606F00EB82000175697B226AC2EB60
:103DD000C202606F00EB82004175A97B226AC2EBD0
:103DE000C202606F00EB82008175E97B226AC2EB40
:103DF000C202606F00EB8200C175297C226AC2EBAF
:103E0000C202606F00EB82000176697C226AC2EB1D
:103E1000C202606F00EB82004176A97C226AC2EB8D
:103E2000C202606F00EB82008176226AC2EBC2029E
:103E3000606F00EB82012046FFF72AFF206A401CDA
:103E40002062206A142800E006E001D300202062EE
:103E500004F1780003F0B7FE70BD00005175657580
:103E60006520696E6974204F4B21000000F0BCF999
:103E700001F058FA00F041FF0AE04FF0FF310E4820
:103E800003F0F8FD00F069F900F077FF00F07DFF26
:103E9000F3E77CB5044614204FF480630022074901
:103EA000CDE9004006A007F064FB0546284607F070
:103EB000F9FA00207CBD0000645B00206D3E000824
:103EC000436F6C6C6563740070B52DED0C8B04460C
:103ED00020881FF00CFF41EC1D0B9FEDA50B53EC50
:103EE000102B1FF053FF41EC1C0B9FEDA30B53EC69
:103EF000102B1FF077FD41EC1B0B1FF035FD064624
:103F000020F00EF941EC1A0B9FED9D0B53EC102B9A
:103F10001FF03CFF41EC190B1FF026FD08EE100AC4
:103F2000BCEEC80A10EE100A208360881FF0DFFE86
:103F300041EC1D0B9FED8E0B53EC102B1FF026FF59
:103F400041EC1C0B9FED8C0B53EC102B1FF04AFD2A
:103F500041EC1B0B1FF008FD064620F0E1F841EC98
:103F60001A0B9FED870B53EC102B1FF00FFF41EC4A
:103F7000190B1FF0F9FC08EE100ABCEEC80A10EE8F
:103F8000100A6083E08801F013FA054605F5FA701F
:103F90000A2190FBF1F0A083208901F009FA05467F
:103FA00005F5FA700A2190FBF1F0E083608901F0D9
:103FB000FFF9054605F5FA700A2190FBF1F020841F
:103FC000A08901F0F5F9054605F5FA700A2190FB84
:103FD000F1F06084E08901F0EBF9054605F5FA702F
:103FE0000A2190FBF1F0A084208A01F0E1F9054656
:103FF00005F5FA700A2190FBF1F0E084608A1FF069
:1040000076FE41EC1D0B9FED5A0B53EC102B1FF06D
:10401000BDFE41EC1C0B9FED580B53EC102B1FF019
:10402000E1FC41EC1B0B1FF09FFC064620F078F8EA
:1040300041EC1A0B9FED520B53EC102B1FF0A6FE18
:1040400041EC190B1FF090FC08EE100ABCEEC80AF8
:1040500010EE100A2085A08A1FF049FE41EC1D0BCE
:104060009FED430B53EC102B1FF090FE41EC1C0B0B
:104070009FED410B53EC102B1FF0B4FC41EC1B0BDC
:104080001FF072FC064620F04BF841EC1A0B9FED36
:104090003C0B53EC102B1FF079FE41EC190B1FF079
:1040A00063FC08EE100ABCEEC80A10EE100A608528
:1040B000E08A1FF01CFE41EC1D0B9FED2D0B53EC15
:1040C000102B1FF063FE41EC190B9FED2B0B53ECF3
:1040D000102B1FF087FC41EC1C0B1FF045FC064623
:1040E00020F01EF841EC1B0B9FED250B53EC102B21
:1040F0001FF04CFE41EC1A0B1FF036FC08EE100AC4
:10410000BCEEC80A10EE100AA085BDEC0C8B70BD89
:104110001D49098801801C49498841801A498988BC
:1041200081801949C988C1801749098901811649C7
:10413000498941811449898981811349C989C1818A
:104140001149098A01821049498A41820E49898AA6
:1041500081820D49C98AC182704710B500F0D7FB32
:104160000A48FFF7D5FF0948FFF7AEFE10BD000073
:104170000000000000000840000000000000B04007
:1041800000000000004CBD40A654002078540020E0
:104190001CB50020009001900121072012F0F2FBD5
:1041A000FE20009003208DF8040000208DF8070009
:1041B0006946F94811F02AFB032000908DF80400AD
:1041C00000208DF807006946F44811F01FFB072016
:1041D000009003208DF8040000208DF80700694648
:1041E000EF4811F013FB1CBD00B5A1B018211BA8AE
:1041F0001DF068FC3C210CA81DF064FC0020099017
:104200000A900B90142104A81DF05CFC0020009083
:10421000019002900390FFF7BBFF01214FF4A060D3
:1042200012F09FFC0121880512F0ACFB0121022055
:1042300012F097FC0021DB480DF05DFA0021DA480E
:104240000DF059FA09A815F0CEF94FF4FA700A905A
:104250000020ADF82400ADF82C00ADF8260009A927
:10426000D24815F035F90122A721D04815F0C4F93C
:104270006020ADF810000120ADF812006420069017
:104280000220ADF81C0004A9C84815F005FD08215E
:10429000C64816F037FAC6480FF076F900200C90A1
:1042A000C0484C300D90C3480E9000200F903C2029
:1042B0001090002011904FF48060129040001390F5
:1042C0008000149040111590400216900020179025
:1042D00001201890002019901A900CA9B4480FF0F2
:1042E0003AFAB34818300FF04FF94FF080600C9055
:1042F000AD484C300D90B0480E9000200F903C20FF
:104300001090002011904FF48060129040001390A4
:1043100080001490401115904002169000201790D4
:1043200001201890002019901A900CA9A04818306C
:104330000FF011FA002000904FF48030019000201F
:104340000290039068460DF025F900201B90012093
:104350008DF8700000208DF871004FF000501D9016
:104360004FF050601E9000201F9006208DF88000B6
:104370001BA98C480DF03BF8072301220421894832
:104380000DF0EFFA07230222052186480DF0E9FA25
:1043900007230322062183480DF0E3FA07230422B2
:1043A000194680480DF0DDFA0723052208217D48D3
:1043B0000DF0D7FA0723062209217A480DF0D1FA29
:1043C00000201B9001208DF8700000208DF87100F6
:1043D0004FF000501D904FF050601E9000201F9035
:1043E00006208DF880001BA96F480DF000F8072308
:1043F000012211466C480DF0B4FA0723022211463F
:1044000069480DF0AEFA07230322114666480DF005
:10441000A8FA072304220A2163480DF0A2FA072311
:1044200005220B2160480DF09CFA072306220C217F
:104430005D480DF096FA01215A480DF07FFC0121EC
:1044400059480DF07BFC012159480FF009FB01216F
:1044500054480DF04BFC012152480DF04CF901215C
:10446000534818300FF0FCFA01214F480DF03EFC84
:1044700001214D480DF03FF901214C4815F0D1FACA
:1044800001214A4815F0BEFB0121484817F08DF97B
:10449000002021B000BD2DE9F04105460E4613462F
:1044A0000024A44600210022884600270FE035F8AA
:1044B000021B17B90C468C4606E0A14201DD0C46F2
:1044C00002E0614500DA8C460A44781C87B29F42BC
:1044D000EDDB022B05DCC2F34F003080C2F34F0846
:1044E0000BE0101BA0EB0C02981EB2FBF0F030802A
:1044F000981EB2FBF0F01FFA80F8B8F5006F02DBEF
:104500002046BDE8F0816046FBE72DE9F0472DED40
:10451000068B05460E4617464FF000099FED270B08
:10452000B0EE408AF0EE608A002410E035F8140006
:10453000B04204DB35F81400A0EB060803E035F8C0
:104540001400A6EB000808FB0899601C84B2BC426A
:10455000ECDB38461FF0CBFB41EC190B48461FF053
:10456000C6FB41EC1A0B53EC192B1FF03BFA41EC44
:10457000180BB0EE480AF0EE680A1FF06EF9B0EEC4
:10458000409AF0EE609A51EC190B1FF083FB80B259
:10459000BDEC068BBDE8F08700000240000402403D
:1045A00000080240002001400022014000040140B8
:1045B00010640240C65400203E5500200000000058
:1045C00000000000F0B503460C4615460021002609
:1045D0000027002200BF22E033F81200011B14293B
:1045E00002DA11F1140F07DC08464FEAE17C01EB17
:1045F0009C7C4FEAAC0109E00A2902DA11F10A0FAA
:1046000004DC084601EBD07C4FEA6C016618002EF2
:1046100000DA002623F812603744501C82B2AA4206
:10462000DADBB7FBF5F080B2F0BD70B505460C469D
:10463000BB4800EB44010A222846FFF72CFFB9488B
:10464000008838B3B64830F81410B74800EB44126D
:10465000B64803880088401CB44E308022F81310FE
:1046600030460088102802DB002031460880B04820
:1046700001880088401CAE4A1080322902DB0020ED
:10468000A8490880A84800EB4410A849098830F8D8
:10469000110070BDA24830F81410A34800EB44127A
:1046A000A24803880088401CA04E308022F81310D6
:1046B00030460088102802DB0020314608809D4AE1
:1046C00032F81410984A02EB44101022FFF77AFFD8
:1046D000DFE7002000BF90E000EB4001002202EB8A
:1046E0004101954A32F81110944A22F8101000EB5B
:1046F0004001012202EB41018F4A32F811208F491B
:10470000143121F8102000EB4001022202EB41019C
:10471000894A32F811208949283121F8102000EB0C
:104720004001032202EB4101834A32F81120834900
:104730003C3121F8102000EB4001042202EB410142
:104740007D4A32F811207D49503121F8102000EBCC
:104750004001052202EB4101774A32F811207749E6
:10476000643121F8102000EB4001002202EB4101EE
:10477000734A32F811207149783121F8102000EB8A
:104780004001012202EB41016D4A32F811206B49D0
:104790008C3121F8102000EB4001022202EB410194
:1047A000674A32F811206549A03121F8102000EB4A
:1047B0004001032202EB4101614A32F811205F49B6
:1047C000B43121F8102000EB4001042202EB41013A
:1047D0005B4A32F811205949C83121F8102000EB0A
:1047E0004001052202EB4101554A32F8112053499C
:1047F000DC3121F81020411CC8B20A28FFF66CAF4A
:10480000704710B500214D48FFF70FFF4949088058
:1048100001214A481430FFF708FF46494880022129
:1048200046482830FFF701FF42498880032143486A
:104830003C30FFF7FAFE3F49C88004213F48503022
:10484000FFF7F3FE3B49088105213C486430FFF740
:10485000ECFE384948810A220C3138487830FFF79D
:104860001AFE0A2233490E3134488C30FFF713FE0A
:104870000A22304910313148A030FFF70CFE0A22DD
:104880002C4916312D48DC30FFF705FE2948418AB6
:104890000A222A48B430FFF738FE2648818A0A22C5
:1048A0002648C830FFF731FE10BD22480088254950
:1048B00008802048408848801E48808888801D489D
:1048C000C088C8801B48008908811A4840894881EF
:1048D0001848808988811748C089C8811548008A8E
:1048E00008821448408A48821248808A8882114887
:1048F000C08AC8820F48008B08830E48408B4883CB
:104900000C48808B88830B48C08BC883704710B5D8
:10491000FFF7DFFEFFF775FFFFF7C7FF10BD0000D1
:10492000F6560020240400201657002028040020FA
:104930002604002016590020C6540020B655002039
:104940003E550020A654002030B50022002021E072
:10495000C31700EB13731B11A0EB031343B90146FC
:10496000C31700EB13731B11FE4C246834F813209B
:104970000146C31700EB13731B11A0EB031342FA9C
:1049800003F303F0010300EB8004F74D05F8143046
:10499000411CC8B22028DBDB30BD00208CE000EBDE
:1049A0008001F14A12F8111069B300EB800102EBAB
:1049B0004101498800EB8002EB4B03EB4202D288B5
:1049C00091420BDA00EB80011A4602EB4101498863
:1049D000491C00EB800203EB4202518000EB800196
:1049E000E14A02EB4101898800293ADD00EB8001B0
:1049F00002EB41018988491E00EB8002DA4B03EB90
:104A0000420291802DE000EB8001D74A02EB410188
:104A1000898800EB8002D44B03EB4202D28891429A
:104A20000BDA00EB80011A4602EB41018988491C30
:104A300000EB800203EB4202918000EB8001CA4A46
:104A400002EB4101498800290BDD00EB800102EBFC
:104A500041014988491E00EB8002C34B03EB42022F
:104A6000518000EB8001C04A02EB4101498800EB14
:104A70008002BD4B03EB42021289914206DB012109
:104A800000EB800203EB4202517013E000EB800167
:104A9000B54A02EB4101898800EB8002B24B03EB7F
:104AA00042021289914205DB002100EB800203EBF8
:104AB00042025170411CC8B22028FFF670AF704707
:104AC000A9484178A948008861F30000A7490880F7
:104AD000A548C17AA548008861F34100A349088030
:104AE000A148417DA148008861F382009F49088068
:104AF0009D48C17F9D48008861F3C3009B490880A1
:104B0000994890F829109948008861F30410974952
:104B10000880954890F833109448008861F3451058
:104B200092490880904890F83D109048008861F3C1
:104B300086108E4908808C4890F847108B48008872
:104B400061F3C71089490880874890F85110874859
:104B5000008861F3082085490880834890F85B103D
:104B60008248008861F34920804908807E4890F897
:104B700065107E48008861F38A207C4908807A4865
:104B800090F86F107948008861F3CB20774908804E
:104B9000754890F879107548008861F30C307349B6
:104BA0000880714890F883107048008861F34D3098
:104BB0006E4908806C4890F88D106C48008861F34D
:104BC0008E306A490880684890F8971067480088D6
:104BD00061F3CF3065490880634890F8A1106348BD
:104BE000408861F30000614948805F4890F8AB104D
:104BF0005E48408861F341005C4948805A4890F81B
:104C0000B5105A48408861F3820058494880564898
:104C100090F8BF105548408861F3C300534948805D
:104C2000514890F8C9105148408861F304104F4929
:104C300048804D4890F8D3104C48408861F34510A7
:104C40004A494880484890F8DD104848408861F358
:104C5000861046494880444890F8E7104348408809
:104C600061F3C710414948803F4890F8F1103F4830
:104C7000408861F308203D4948803B4890F8FB108C
:104C80003A48408861F3492038494880364890F8CE
:104C900005113648408861F38A20344948803248FB
:104CA00090F80F113148408861F3CB202F4948809C
:104CB0002D4890F819112D48408861F30C302B498C
:104CC0004880294890F823112848408861F34D30E6
:104CD00026494880244890F82D112448408861F3E3
:104CE0008E3022494880204890F837111F4840886C
:104CF00061F3CF301D494880704710B5002400BFD4
:104D000022E0002004EB8401174A02F8110004EBB2
:104D1000840102EB4101487004EB840102EB410184
:104D2000488004EB840102EB41018880142004EBED
:104D3000840102EB4101C8800F2004EB840102EBE7
:104D400041010881601CC4B2202CDADB0222002160
:104D50000648001D04F063FB02220449091D0448B3
:104D6000006807E034040020365900202C0400209D
:104D70003804002004F077FB10BD10B5FFF7E4FD08
:104D8000FFF70BFEFFF79CFE10BD6F4800686F49F0
:104D900089880180704710B56D48007800F00100E7
:104DA00090B16B48007800F0FE006949087002225B
:104DB00000216648001D04F032FB66A004F0BFFE2F
:104DC0006CA004F0BCFE0BE06148007840F00100EC
:104DD0005F4908706DA004F0B2FE73A004F0AFFE4E
:104DE00010BD2DE9F04100240025584E74A004F0B8
:104DF000A6FE00BF4AE0E11704EB5171C910A4EB15
:104E0000C10111B972A004F09AFEE11704EB11710F
:104E10000911A4EB011101BB6FA004F090FE601C0E
:104E2000C5B205E029466DA004F089FE681CC5B234
:104E300004F108008542F5DD65A004F080FE05E080
:104E4000294666A004F07BFE681CC5B204F1100080
:104E50008542F5DD60A004F072FE2746E01704EB02
:104E600010700011A4EB00123088104100F0010115
:104E70005CA004F064FEE11704EB11710911A4EBCE
:104E800001110F2900D1B61C601CC4B2302CB2DB5A
:104E9000564804F054FE2D4E361D55A004F04FFE2A
:104EA00000244AE0E11704EB5171C910A4EBC101E1
:104EB00011B947A004F043FEE11704EB1171091189
:104EC000A4EB011101BB44A004F039FE601CC5B283
:104ED00005E0294641A004F032FE681CC5B204F189
:104EE00008008542F5DD3AA004F029FE05E02946D8
:104EF0003AA004F024FE681CC5B204F110008542FB
:104F0000F5DD35A004F01BFE2746E01704EB10701A
:104F10000011A4EB00123088104100F0010131A013
:104F200004F00DFEE11704EB11710911A4EB01115E
:104F30000F2900D1B61C601CC4B2102CB2DB26A015
:104F400004F0FDFDBDE8F081380400202C040020B1
:104F50003C0400200D0ACFB5CDB3CEB4B4A6D3DA4D
:104F6000C7BFD6C6494FCAE4B3F6C4A3CABD210D14
:104F70000A0000000D0ACDA3D6B9B2E2CAD432307D
:104F8000C2B7CAE4B3F6CDA8B5C021000D0ACFB5AB
:104F9000CDB3B4A6D3DAC7BFD6C6494FCAE4B3F679
:104FA000C4A3CABD210D0A000D0AD7D4B6AFB2E220
:104FB000CAD43230C2B7CAE4B3F6CDA8B5C0210016
:104FC0000D0A4469676974616C20496E3A0D0A00E4
:104FD00020202020000000000D0A0000636825301A
:104FE00032647C002020253164207C004857020870
:104FF0000D0A4469676974616C204F75743A0D0A33
:10500000000000001CB50121084611F0BBFC012185
:10501000042011F0B7FC4FF4C050009001208DF82F
:10502000040000208DF8060003208DF80500002004
:105030008DF807006946C34810F0E8FB4FF4807014
:1050400000906946C04810F0E1FB4FF4C051BD48E4
:1050500010F003FE1CBD1CB50C220021BB4810F053
:1050600012FF0C220121B94810F00DFF0C2204217F
:10507000B64810F008FF0C220521B44810F003FFD9
:105080000C220621B14810F0FEFE0C220721AF4889
:1050900010F0F9FE0C220821AC4810F0F4FE0C22AE
:1050A0000921AA4810F0EFFE0C220A21A74810F0AF
:1050B000EAFE0C220B21A54810F0E5FE0C22114659
:1050C000A24810F0E0FE0C220D21A04810F0DBFEFB
:1050D0000C220E219D4810F0D6FE0C220F219B4879
:1050E00010F0D1FE0C220021994810F0CCFE0C22C9
:1050F0000121974810F0C7FE0C220321944810F0BC
:10510000C2FE0C220721924810F0BDFE0C2208219D
:105110008F4810F0B8FE0C2209218D4810F0B3FE24
:105120000C220A218A4810F0AEFE0C220B2188487E
:1051300010F0A9FE0C221146854810F0A4FE0C22A6
:105140000D21834810F09FFE0C220E21804810F0A4
:105150009AFE0C220F217E4810F095FE0C220021B1
:105160007C4810F090FE0C2201217A4810F08BFE52
:105170000C220221774810F086FE0C22032175488C
:1051800010F081FE0C220421724810F07CFE0C22EB
:105190000521704810F077FE0C2211466D4810F082
:1051A00072FE0C220D216B4810F06DFE0C220E21B8
:1051B000684810F068FE0C220F21664810F063FE6C
:1051C0000C220021644810F05EFE0C22012162488E
:1051D00010F059FE0C2202215F4810F054FE0C2200
:1051E00003215D4810F04FFE0C2204215A4810F0B4
:1051F0004AFE0C220521584810F045FE0C220A21D7
:10520000554810F040FE0C221146534810F03BFE6A
:1052100002208DF8040003208DF8050000208DF891
:1052200006008DF807004FF6F37000906946474876
:1052300010F0ECFA4FF68B7000906946444810F07D
:10524000E5FA4FF23F0000906946424810F0DEFA5E
:1052500041F23F40009069463F4810F0D7FA1CBD2C
:1052600000B597B03C2108A81CF02CFC1C2101A81B
:105270001CF028FC39A004F062FC0F200190029081
:10528000FF2003900F2004900590002006900790C7
:10529000042008900020099008200A9010200B900C
:1052A00000200C900D900E900F9010904FF48050B5
:1052B0001190002012901390149001A81590169050
:1052C00008A80FF070FB012104200FF063FD0820F7
:1052D0000190029003900220049005900020069017
:1052E0000790062008900020099004200A901020C2
:1052F0000B9000200C900D900E900F9010904FF49A
:1053000080501190002012901390149001A81590D5
:10531000169008A80FF047FB012106200FF03AFD78
:1053200017B000BD10B50121782011F02BFB012131
:10533000084611F079FBFFF78EFEFFF791FF012081
:1053400010BD00000000024000080240000C0240B6
:105350000010024000140240001802400D0A2046CE
:10536000534D4320636F6E6669672E2E2E0000003A
:1053700030B50346002408E018780D78A84201D023
:10538000002030BD5B1C491C641C9442F4D30120F6
:10539000F7E730B5024600200024002313460C46F0
:1053A00044EA0325A8B230BD00487047639A5A57B3
:1053B000F0B5024600212E480088904204DC2C48BB
:1053C000B0F84001904202DA44F61F60F0BD80233D
:1053D00019E041EA0300A02814DC1943244830F8FE
:1053E0001100904206D1A1F1280000EB800040009E
:1053F00000B2EBE71E4830F81100904201DA00BF1E
:1054000000E099435B10002BE3D1194830F81100FC
:10541000904211DA164E481C36F8100036F811602A
:10542000801B134E36F81160961B06EB860676003D
:1054300096FBF0F084B211E00D4830F81160481E80
:105440000B4F37F81000301A3E4636F8116006EB65
:105450008606C2EB460696FBF0F084B2A1F1280066
:1054600000EB800004EB400005B22846AEE70000E8
:105470006646020810B50121080711F049FB01201A
:1054800010F0CDFD0121880411F07CFA10BD70B53B
:1054900000240025022012F08EFF41F6751188428B
:1054A00038D0FFF7E7FF00BF03E023482450201D5A
:1054B00084B2B4F5805FF8DB002407E01E48205872
:1054C000A04201D0681C85B2201D84B2B4F5805F73
:1054D000F4DB25B1294619A004F031FB02E021A03C
:1054E00004F02DFB1448264908608214002124484A
:1054F000006803F094FF012010F0D7FD00BF0820E2
:1055000010F04FFE0028FAD041F67511022012F07B
:1055100015FF04E0FFF7AEFF0748194908600120B6
:1055200070BD70B504460D461549096808192A462C
:10553000002103F074FF70BD004002400D0A2B20D3
:10554000424B50205352414D204E756D6265722082
:105550006F66206572726F7273203D202564200D86
:105560000A0000000D0A2B20424B50205352414D9F
:10557000207772697465204F4B21200D0A000000CE
:105580004804002038B5684600F09CF968461CF0D5
:1055900033FB0446606900F26C70642190FBF1F209
:1055A00001FB12000A490870207C401C4870207BD7
:1055B0008870207EC871207AC870207908712078A0
:1055C000487138BD10B500F0E1FA0149087210BD0C
:1055D000765A002030B501464A69A2F146035A1CAA
:1055E000D41702EB9474A410F84D6C43F84D05FBEE
:1055F0000340F84C0A6954F8222010440C69012C2D
:1056000009DD9A1CD41702EB9474A410A2EB840455
:105610000CB1EE4A801ACA68521EEC4C04FB020020
:105620004FF461648A6804FB02003C244A6804FB6E
:1056300002000A68104430BD02460020704710B5D1
:105640000446002010BD2DE9F0418CB00746884685
:1056500015466FB9002000905523DF4ADFA1E3A073
:1056600004F06DFA00BF9DF800000028FBD000BFD9
:10567000B8F1100F03D0B8F1110F4CD121E02E4634
:10568000E249002011F02EFFE149002012F029F834
:10569000DE4880780190DD4840780290DB48007851
:1056A0000390DB484078401E0590D94880780490EC
:1056B000D748C0784630069001A8FFF78BFF3060CE
:1056C00029E02E460121080711F022FA012010F0EE
:1056D000A6FC30461CF090FA04462078CB4988702E
:1056E00020794870207A0870207C401CC849487096
:1056F000207B8870207D4638C870C449002011F096
:10570000F9FDC349002011F024FF4AF2A551012000
:1057100012F014FE00BF00BF00200CB0BDE8F08105
:1057200010B54FF400140121080711F0F1F9012020
:1057300010F075FC012010F038FE00BF412010F081
:10574000B6FD10B9601E041EF8D1002C30D1002027
:1057500010F02BFE0121080711F0DAF9012010F0FA
:105760005EFC012010F045FE4FF4001400BF6120E4
:1057700010F09DFD10B9601E041EF8D10CB9002078
:1057800010BD0220A3490870000211F04AF8012060
:1057900011F0CAF811F018FC7F209F494860FF20E3
:1057A000886000200860084611F0CAFC0120E7E785
:1057B000012098490870000211F033F8FF20974942
:1057C00008607F2096490860012011F0ADF811F0C3
:1057D000FBFB0120D4E710B5FFF7A2FF08B90020BA
:1057E00010BD0020894908704870887001208849E0
:1057F000487088700020C8700420087085480078C0
:1058000001280CD1864800688349486083480068B5
:10581000886000200860084611F092FC0DE07D4889
:105820000078022809D17F207B494860F9208860F0
:1058300000200860084611F083FC7449012011F033
:1058400059FD7349012011F084FE734811F078FC72
:1058500008B90020C4E76F480078C1E710B50024FC
:10586000052070490875012012F0A5FD4AF2A551E6
:1058700088420ED06CA004F062F973A004F05FF9C6
:10588000FFF7A9FF04463CB97BA004F058F90020BB
:1058900010BD11F099FB01240020624948627D4847
:1058A00088620020C8627C480863002048637B4807
:1058B00088630020C863032279A15A4801F05AFD89
:1058C0002046E5E738B504460020009074A001F0BA
:1058D0002BFD05463DB16A461021284601F07FFEAA
:1058E0000CB100982060009838BD2DE9F8430646B9
:1058F0000F46904600246846FFF7E4FF68461CF018
:105900007BF9044634B1A6F26C706061781E2061A8
:10591000C4F80C8020461CF094F9009060A001F0BF
:1059200003FD054625B16A4611212846FFF78BFE87
:10593000BDE8F8832DE9F84306460F46904600245B
:105940006846FFF7BFFF68461CF056F904461CB1D5
:10595000A6606760C4F8008020461CF072F90090D1
:105960004FA001F0E1FC054625B16A461121284609
:10597000FFF769FEBDE8F88338B56846FFF7A2FF78
:1059800068461CF031F90446214646A004F0D7F8D9
:1059900038BDF8B506460C466846FFF793FF0098F9
:1059A0003044009068461CF027F90546686960613C
:1059B00028692061E868E060A868A06068686060A5
:1059C00028682060A869A061F8BD0000805101002E
:1059D0008033E1015C0400204048020864657620C1
:1059E000213D2052545F4E554C4C00002825732910
:1059F00020617373657274206661696C65642061EF
:105A0000742025733A2564200A0000005404002005
:105A1000580400208C040020805A002050040020EC
:105A20004C0400209C5A00200D0A0D0A2B20727491
:105A300063206973206E6F7420636F6E666967758B
:105A40007265640A000000002B20706C656173654C
:105A500020636F6E66696775726520776974682068
:105A60007365745F6461746520616E64207365742E
:105A70005F74696D650A00002B2072746320636F88
:105A80006E666967757265206661696C2E2E2E0DD3
:105A90000A000000395600083F5600084756000823
:105AA0007274630025730A002DE9FC5F05460F46FA
:105AB00090469946DDE90CA6002455B94FB9B8F1D6
:105AC000000F06D1B9F1000F03D1BAF1000F00D1D8
:105AD00076B1FF2D0ED1FF2F0CD1B8F1FF0F09D1F8
