:020000040800F2
:10000000D84D002031A80008490A000871F6000800
:100010004B0A00084F0A0008530A000800000000BD
:10002000000000000000000000000000570A000867
:10003000590A000800000000BBF50008D7030008BB
:100040004BA800084BA800084BA800084BA80008C4
:100050004BA800084BA800084BA800084BA80008B4
:100060004BA800084BA800084BA800084BA80008A4
:100070004BA800084BA800084BA800084BA8000894
:100080004BA800084BA800084BA800084BA8000884
:10009000910A00084BA800084BA800084BA80008CC
:1000A0004BA800084BA800084BA800084BA8000864
:1000B0004BA800084BA80008810A00084BA80008BC
:1000C0004BA800084BA800084BA800084BA8000844
:1000D0004BA800085B0A00086F0A0008710A0008B4
:1000E0004BA800084BA800084BA800084BA8000824
:1000F0004BA800084BA800084BA800084BA8000814
:100100004BA800084BA80008C96D01084BA80008BF
:100110004BA800084BA800084BA800084BA80008F3
:100120004BA800084BA800084BA800084BA80008E3
:100130004BA800084BA800084BA800084BA80008D3
:10014000A10A00084BA800084BA800084BA800080B
:100150004BA800084BA800084BA800084BA80008B3
:100160004BA800084BA800084BA800084BA80008A3
:100170004BA800084BA800084BA800084BA8000893
:100180004BA800084BA8000800F002F800F067F840
:100190000AA090E8000C82448344AAF10107DA45E2
:1001A00001D100F05CF8AFF2090EBAE80F0013F0CD
:1001B000010F18BFFB1A43F001031847A49D01006B
:1001C000C49D01000A444FF0000C10F8013B13F0ED
:1001D000070408BF10F8014B1D1108BF10F8015BA0
:1001E000641E05D010F8016B641E01F8016BF9D193
:1001F00013F0080F1EBF10F8014BAD1C0C1B09D1EA
:100200006D1E58BF01F801CBFAD505E014F8016B5B
:1002100001F8016B6D1EF9D59142D6D370470000ED
:100220000023002400250026103A28BF78C1FBD8FF
:10023000520728BF30C148BF0B6070471FB518F088
:1002400013FE18F0DBFD04000020002118F0F6FD7D
:10025000401C606018F004FD1FBD10B510BD18F003
:10026000A8FD1146FFF7EAFF00F040F818F0D8FDAE
:1002700003B4FFF7F2FF03BC18F0DAFD10B514B1B8
:1002800020460EF0E3FB15F0B4FB002010BD00008B
:1002900004460D4619A00CF026FF214621A00CF0C3
:1002A00022FF294624A00CF01EFF00BFFEE710B578
:1002B00000F099F80CF047FF0AF0DAFA0DF085FF2C
:1002C0000FF069F8214922480DF0A5F80EF037F932
:1002D000FFF7D4FF14F0EFF81EA013F065FC0FF049
:1002E00066F80AF050FD0EF046F910BD10B50FF09B
:1002F0004DF9FFF7DCFF002010BD00000A0D20576C
:10030000726F6E6720706172616D657465722076C0
:10031000616C7565206465746563746564206F6ED7
:100320000D0A00002020202020202066696C652016
:100330002025730D0A000000202020202020206CA2
:10034000696E65202025640D0A000000000002206F
:10035000D84D0020756172743100000010B5002185
:100360004FF0006000F049FE4FF4A06000F0D8FDAF
:1003700010BD7FB5684604F095FF4FF47A7101987F
:10038000B0FBF1F4E4082146B1F1807F00D31DE019
:1003900021F07F40401E4FF0E022506150170F22A5
:1003A000002807DA13071E0E144B00F00F052D1F4F
:1003B0005E5503E013071D0E114B1D5400BF0020B6
:1003C0004FF0E02290610720106100BF6FF0040041
:1003D00000F058FE7FBD10B50CF0A0FA0AF057FAF5
:1003E0000CF0ABFA10BD10B5FFF7B8FFFFF7C1FF77
:1003F00000F09AFB03A00CF0EBFE10BD18ED00E03E
:1004000000E400E0756172743100000038B5054603
:10041000EC6BA87D00F0100000283BD1E88A00F4C6
:10042000807048B14022002160680CF0CCFA0020B6
:100430006168086461684864E88A00F40060002824
:1004400020D0A068006868B9002000902F23F44AEB
:10045000F4A1FEA00CF047FE00BF9DF800000028AC
:10046000FBD000BF0020A1688860A1684860102010
:100470000090A16801F1440201F10C005023FBA19E
:100480000DF038FC0121206809F026FCE88A40F0D4
:100490001000E882002038BD024600207047014667
:1004A000002070472DE9F05F80468B4616461F46B8
:1004B00035464FF00009D8F83C40B8F8160000F473
:1004C000807048B325E00FF061F882466068006CE8
:1004D0006168496C884212D06068016C405C05F824
:1004E000010B7F1E6068006C401C616808646068D6
:1004F000006C402809D300206168086405E06FF0B3
:10050000030950460FF046F805E050460FF042F858
:1005100000BF002FD7D10EE00AE003E020688088FA
:1005200028706D1C2068008800F020000028F5D19C
:10053000A81BB842F1D348460CF024FAA81BBDE82A
:10054000F09FF8B504460E4615466CB900200090A1
:100550008E23C74AC7A1BDA00CF0C5FD00BF9DF802
:1005600000000028FBD000BF0021204602F0D4F894
:10057000E66065600121204602F0CEF8F8BD2DE965
:10058000F84F804691461F464FF0000A4E46D8F875
:100590003C40B8F8160000F4806068B1002000907C
:1005A000A923BA4ABAA1A9A00CF09DFD00BF9DF8ED
:1005B00000000028FBD068E0B8F8160000F40060E6
:1005C000002831D0A16801F10C004FF0FF310DF08F
:1005D000BAFC054615B96FF0040A24E02E606F607E
:1005E0000020A8600EF0D2FF8346A0688068E86013
:1005F000A068806810B1A06880688560A068856088
:10060000A068406858B9A0684560A3685B685A68EC
:10061000A3685B681968A3681868FFF792FF5846DB
:100620000EF0B8FF00BF30E098F8160000F0400070
:10063000E0B118E030780A2809D100BF20680088AE
:1006400000F080000028F9D00D202168888000BFCC
:100650002068008800F080000028F9D030782168F8
:100660008880761C7F1E002FE4D10EE00BE000BFD7
:100670002068008800F080000028F9D030782168D8
:100680008880761C7F1E002FF1D150460CF07AF93D
:10069000A6EB0900BDE8F88FF8B504460E461746EC
:1006A00074B9002000904FF482737A4A7AA167A04F
:1006B0000CF019FD00BF9DF800000028FBD000BF22
:1006C000E56B012E0AD0022E11D1E08A40F0200005
:1006D000E0820021286809F0FFFA08E0E08A20F0B3
:1006E0002000E0820121286809F0F6FA00BF00BF6F
:1006F0000020F8BDF8B504460F4615461E4674B9ED
:100700000020009040F21F13674A68A14FA00CF030
:10071000EAFC00BF9DF800000028FBD000BF05F4F4
:10072000007010B905F4806070B1002000904FF4A3
:1007300092735D4A56A145A00CF0D5FC00BF9DF810
:1007400000000028FBD000BF00202075E06120627F
:100750005B4860625B48A0625B48E0625B48206384
:100760005B4860635B48A063E663A8B240F00302A5
:10077000394620460AF0D2F8F8BDF8B50546EC6BCC
:1007800040F22551206809F064FF002846D0E88A2D
:1007900000F4807070B9002000904FF49F734E4AAF
:1007A0004EA12AA00CF09FFC00BF9DF8000000287D
:1007B000FBD000BF29E00EF0E9FE064620688088E5
:1007C00061684A6C88546068406C401C6168486489
:1007D0006068406C402802D300206168486460680B
:1007E000406C6168096C88420BD16068006C401CE9
:1007F000616808646068006C402802D3002061686A
:10080000086430460EF0C6FE00BF2068008800F085
:1008100020000028CFD140F2255173E090E0000085
:10082000728E0108756172742D3E646D615F74781B
:100830002D3E646D615F6368616E6E656C20213D65
:100840002052545F4E554C4C00000000282573295F
:1008500020617373657274206661696C65642061E0
:10086000742025733A2564200A000000646E00009D
:10087000818E0108646D615F6368616E6E656C20D6
:10088000213D2052545F4E554C4C0000968E01087D
:1008900030000000A68E010864657620213D2052BC
:1008A000545F4E554C4C0000B88E01086465766963
:1008B000636520213D2052545F4E554C4C00000092
:1008C0000D040008990400089F040008A50400080E
:1008D0007F05000899060008CE8E010864657669D8
:1008E00063652D3E666C616720262052545F444547
:1008F000564943455F464C41475F494E545F525805
:1009000000000000206809F032FFE869C0B16068AB
:10091000006C6168496C884207D96068006CC0F15E
:1009200040006168496C084404E06068406C61689C
:10093000096C401A064631462846EA69904700BFCE
:1009400040F22661206809F084FE20B140F2266161
:10095000206809F00CFFF8BDF8B50546EC6BE88A95
:1009600000F4006078B9002000904FF4BE73254A6F
:1009700025A1AFF228100CF0B6FB00BF9DF80000D7
:100980000028FBD000BFA06846687EB90020009018
:100990004FF4C0731B4A26A1AFF250100CF0A3FB1A
:1009A00000BF9DF800000028FBD000BF286A18B1E6
:1009B000316828462A6A90470EF0E8FD0746B0687D
:1009C000A1684860A068406810B90020A1688860EC
:1009D00038460EF0DFFD30460DF053FBA06840684E
:1009E00050B1A3685B685A68A3685B681968A3681C
:1009F0001868FFF7A6FD04E0A1680868002101F06F
:100A00008BFEF8BDDF8E01086465766963652D3E57
:100A1000666C616720262052545F44455649434521
:100A20005F464C41475F444D415F54580000000011
:100A3000646174615F6E6F646520213D2052545F74
:100A40004E554C4C00000000704700BFFEE700BF51
:100A5000FEE700BFFEE77047704710B50BF05EFF82
:100A60001349144816F099FA0BF067FF10BD704750
:100A700010B50BF053FF16F04BF90BF05EFF10BDF5
:100A800010B50BF04BFF00F085F80BF056FF10BDD2
:100A900010B50BF043FF14F018F90BF04EFF10BD2A
:100AA00010B50BF03BFF14F024F90BF046FF10BD1E
:100AB000000C00404804002010B50121084604F055
:100AC0000DFD0121102004F0F8FD10BD1CB5022021
:100AD0008DF8040000208DF8060001208DF8070035
:100AE00000208DF805004FF4C0600090694623484F
:100AF00003F0E8FC07220921204804F020F807222F
:100B00000A211E4804F01BF81CBD08B525208DF8ED
:100B1000000000208DF8020001208DF803006846D7
:100B200000F019FA08BD70471FB5FFF7C5FFFFF7C2
:100B3000CDFFFFF7EAFFFFF7F6FF4FF4E13000903B
:100B40000020ADF80400ADF80600ADF80800ADF8DF
:100B50000C000C20ADF80A006946094808F073FF44
:100B6000084B40F2431208A10948FFF7C3FD0122D8
:100B700040F22551024809F03EFC1FBD0000024032
:100B80000010014000000020756172743100000007
:100B90004804002010B501214E4808F0FAF94E48EB
:100BA00001780078401C4C4A1070052091FBF0F24F
:100BB00000FB121010B949480AF0D9FA48480178E8
:100BC0000078401C464A10700A2091FBF0F200FBAE
:100BD000121040B943480AF0CAFA43480AF0C7FA6B
:100BE00042480AF0C4FA14F039FB10BD0EB50020DB
:100BF000009001900290374805F076FD09200190A1
:100C00000020ADF80000ADF80800ADF8020069461C
:100C1000304805F045FE012242F2CF012D4805F093
:100C2000D3FE01212B4806F0E4F80121294808F001
:100C30001DF901221146274808F00EF80121254828
:100C400006F0C8F90EBD08B51E208DF80000012081
:100C50008DF8010000208DF8020001208DF80300BE
:100C6000684600F078F908BD10B50121042004F0B1
:100C7000FBFC10BD2DE9F04100231A461CA11748CA
:100C80000AF026F9044600231A461BA115480AF06B
:100C90001FF9054600231A4619A113480AF018F94E
:100CA000064600231A4618A118480AF011F907460B
:100CB000FFF7DAFFFFF7C7FFFFF798FF34B92CB94A
:100CC00025B91EB917B90020BDE8F0814FF0FF30FB
:100CD000FAE700000008004010000020880400200F
:100CE00011000020A8040020C804002000460020B5
:100CF0006164696F000000006C6F67696300000049
:100D0000636F6D6D5478000063616E00E80400202D
:100D10000CB50020019000907648006840F48030C7
:100D20007449086000BF7348006800F40030009008
:100D30000198401C0190009818B90198B0F5A06F77
:100D4000F1D16C48006800F4003010B1012000902F
:100D500001E0002000900098012846D1654840300D
:100D6000006840F080506349403108606248006884
:100D700040F48040604908605E48083000685D4982
:100D8000083108600846006840F4004008600846E2
:100D9000006840F4A05008605848091F0860081F08
:100DA000006840F08070091F086000BF514800686B
:100DB00000F000700028F9D040F20560504908604A
:100DC0004C480830006820F003004A4908310860A8
:100DD0000846006840F00200086000BF454808303F
:100DE000006800F00C000828F8D10CBD10B545488B
:100DF000006840F47000434908603E48006840F0D5
:100E000001003C49086000203A490831086039482F
:100E100000683D490840374908603C48091D0860A2
:100E2000081F006820F48020091F08600020314955
:100E30000C310860FFF76CFF4FF0006031498039DA
:100E4000086010BD70B5002000220223002402219A
:100E5000284D08352D6805F00C0020B1042806D077
:100E6000082834D107E02A4D2A4E356033E02A4D58
:100E7000284E35602FE01F4D2D1D2D68C5F3805481
:100E80001C4D2D1D2D6805F03F0154B1224DB5FBC1
:100E9000F1F5184E361D3668C6F3881605FB06F2C6
:100EA00009E01B4DB5FBF1F5124E361D3668C6F351
:100EB000881605FB06F20F4D2D1D2D68C5F3014563
:100EC0006D1C6B00B2FBF3F5124E356003E0104D64
:100ED000104E356000BF00BF064D08352D68C5F3C4
:100EE00003150E4E705D0B4D2D68C540094E3560E3
:100EF00070BD0000003802400070004019544007E7
:100F0000003C024088ED00E0FFFFF6FE10300024B8
:100F10000024F4001400002040787D011800002017
:100F200010B50446B4F5E06F0BD0B4F5C06F08D02F
:100F3000B4F5A06F05D0B4F5806F02D0B4F5407F52
:100F400000D103E073215FA0FFF7A2F969482043B5
:100F50006949086010BD2DE9F041044600250027CD
:100F60000F26E07810B1E078012800D103E0872156
:100F700054A0FFF78DF96078102800DA03E088218B
:100F800050A0FFF785F9A078102800DA03E0892146
:100F90004CA0FFF77DF9E07818B35748006800F4DB
:100FA000E060C0F5E060C0F30725C5F10400C7B2FA
:100FB0002E416078B840C5B2A0783040054328077C
:100FC000050E4E4821784554207800F01F0101207D
:100FD000884021784911890001F1E021C1F8000120
:100FE00009E0207800F01F01012088404449227860
:100FF000521141F82200BDE8F08170B504460D465B
:10100000B4F1005F02D0B4F1006F00D103E0B12170
:101010002CA0FFF73DF93B48854200D203E0B22106
:1010200028A0FFF735F9384905EA01002043324985
:10103000091F086070BD70B504460D46102C03D022
:10104000042C01D0022C00D103E0C4211DA0FFF725
:101050001FF90DB1012D00D103E0C52119A0FFF743
:1010600017F93DB12448001D006820432249091D9D
:10107000086006E02048001D0068A0431E49091DC5
:10108000086070BD10B50446042C01D0601D00B985
:1010900003E0DC210BA0FFF7FBF8042C08D14FF094
:1010A000E020006940F004004FF0E021086107E013
:1010B0004FF0E020006920F004004FF0E0210861CB
:1010C00010BD00004C69627261726965735C5354B3
:1010D0004D3332463478785F53746450657269706A
:1010E000685F4472697665725C7372635C6D697384
:1010F000632E63000000FA050CED00E000E400E060
:1011000080E100E0FFFF0F0080FFFF1F10B50446E5
:10111000FC48844202D0FC48844200D103E0A5216F
:10112000FAA0FFF7B5F8F748844209D10121480633
:1011300004F067FB00214FF0007004F062FB08E050
:101140000121880604F05DFB00214FF0806004F06F
:1011500058FB10BD2DE9F04104460D46002700263E
:10116000E848844202D0E848844200D103E0C52127
:10117000E6A0FFF78DF8A87910B1A879012800D171
:1011800003E0C621E1A0FFF783F8E87910B1E87920
:10119000012800D103E0C721DCA0FFF779F8287A05
:1011A00010B1287A012800D103E0C821D7A0FFF7A9
:1011B0006FF8687A10B1687A012800D103E0C9217C
:1011C000D2A0FFF765F8A87A10B1A87A012800D15B
:1011D00003E0CA21CDA0FFF75BF8E87A10B1E87A06
:1011E000012800D103E0CB21C8A0FFF751F8A8786F
:1011F00040B1A878012805D0A878022802D0A878A4
:10120000032800D103E0CC21C0A0FFF741F8E87823
:1012100040B1E878012805D0E878022802D0E878C3
:10122000032800D103E0CD21B8A0FFF731F82879D9
:101230000F2800DC03E0CE21B4A0FFF729F868797D
:10124000072800DC03E0CF21B0A0FFF721F82888B1
:10125000012804DB2888B0F5806F00DC03E0D02192
:10126000AAA0FFF715F8206820F00200206020688F
:1012700040F00100206000E0761C606800F0010092
:1012800018B94FF6FF708642F6D1606800F0010091
:1012900008B900276CE0A879012804D1206840F043
:1012A0008000206003E0206820F080002060E87962
:1012B000012804D1206840F04000206003E020684D
:1012C00020F040002060287A012804D1206840F0F6
:1012D0002000206003E0206820F020002060687A71
:1012E000012804D1206840F01000206003E020684D
:1012F00020F010002060A87A012804D1206840F076
:101300000800206003E0206820F008002060E87AF0
:10131000012804D1206840F00400206003E0206828
:1013200020F004002060A8788007E97840EA016096
:10133000297940EA0140697940EA01502988491E2B
:101340000843E061206820F001002060002600E0F2
:10135000761C606800F0010018B14FF6FF708642FD
:10136000F6D1606800F0010008B1002700E0012715
:101370003846BDE8F08170B504460025A07A1B28E8
:1013800000DC04E040F24D1160A0FEF781FFE07A3E
:1013900010B1E07A012800D104E04FF4A7715BA0FE
:1013A000FEF776FF207B10B1207B012800D104E0FE
:1013B00040F24F1155A0FEF76BFF208910B1208934
:1013C000012800D104E04FF4A87150A0FEF760FF9F
:1013D000607B10B1607B012800D104E040F2511124
:1013E0004AA0FEF755FFA17A012000FA01F5564800
:1013F000006840F001005449086053481C30006800
:10140000A84351491C310860207BC8B94E480C30B4
:101410000068A8434C490C3108606088E18840EAC4
:10142000014149484030A27A40F832102088A18812
:1014300040EA014144484030A27A00EBC2004160DA
:10144000207B012819D140480C30006828433E49D0
:101450000C3108606088218840EA01413A484030F8
:10146000A27A40F83210E088A18840EA014136486B
:101470004030A27A00EBC2004160E07A38B93248CD
:10148000001D0068A8433049091D086006E02E4889
:10149000001D006828432C49091D0860208930B9C7
:1014A000294814300068A84327491431086020896E
:1014B000012806D1244814300068284322491431F9
:1014C0000860607B012806D11F481C300068284353
:1014D0001D491C3108601C48006820F001001A49B1
:1014E000086070BD00218171C17101724172817209
:1014F000C1728170C170032101710221417101210A
:101500000180704700640040006800404C696272CE
:1015100061726965735C53544D3332463478785F39
:101520005374645065726970685F4472697665725D
:101530005C7372635C73746D3332663478785F63A6
:10154000616E2E63000000000066004010B5044686
:10155000012C02DB1B2C00DC05E04FF4E971AFF23B
:101560005400FEF795FEF848006840F00100F64987
:1015700008600846006843F60E718843F249086027
:101580000846006840EA042008600846006820F029
:101590000100086010BD70B504460D46EB4884425A
:1015A00002D0EB48844200D105E040F2EB11AFF2EB
:1015B000A400FEF76DFE0DB1012D00D105E04FF442
:1015C000F671AFF2B800FEF763FE25B1206840F473
:1015D0008030206003E0206820F48030206070BDFF
:1015E00070B504460D46D948844202D0D84884429A
:1015F00000D105E040F20921AFF2F000FEF748FE0D
:101600000DB1012D00D105E040F20A21AFF2041026
:10161000FEF73EFEC5B1206840F0800020604FF428
:10162000C270005940F480714FF4C2700151D4F877
:10163000940140F48071C4F89411D4F8A40140F4EA
:101640008071C4F8A41117E0206820F080002060A9
:101650004FF4C270005920F480714FF4C2700151F0
:10166000D4F8940120F48071C4F89411D4F8A40142
:1016700020F48071C4F8A41170BD70B505460C4605
:101680000026B248854202D0B148854200D105E02B
:101690004FF41071AFF28C10FEF7FAFD207A10B102
:1016A000207A042800D105E040F24121AFF2A410D5
:1016B000FEF7EEFD607A10B1607A022800D105E0F5
:1016C00040F24221AFF2BC10FEF7E2FDA07A0828FA
:1016D00000DC05E040F24321AFF2D010FEF7D8FD68
:1016E000A86800F08060B0F1806F01D1002610E0A2
:1016F000A86800F00060B0F1006F01D1012608E099
:10170000A86800F08050B0F1805F01D1022600E0AF
:101710000426042E7ED005F5C07000EB061000688C
:1017200000F0010105F5C07000EB06100160207AA1
:10173000D0B92068B0F5006F00D205E040F25D211D
:10174000AFF23820FEF7A4FD607A218840EA4150CC
:1017500005F5C07101EB06110968084305F5C07174
:1017600001EB061108601BE06068B0F1005F00D279
:1017700005E040F26321AFF26C20FEF789FD207A8C
:10178000616840EAC100617A084305F5C07101EB68
:1017900006110968084305F5C07101EB06110860E0
:1017A000A07A00F00F00A07205F5C07000EB0610E3
:1017B000406820F00F0105F5C07000EB0610416095
:1017C00005F5C07000EB06104068A17A084305F5E6
:1017D000C07101EB06114860A07B0106607B41EA05
:1017E0000041207B41EA0020E17A084305F5C07101
:1017F00001EB06118860A07C0106607C41EA004193
:10180000207C41EA0020E17B084305F5C07101EB33
:10181000061100E00CE0C86005F5C07000EB061092
:10182000006840F0010105F5C07000EB0610016092
:10183000304670BD70B504460D46002643488442CC
:1018400002D04348844200D105E040F28921AFF242
:101850004430FEF71DFD022D00DC05E040F28A2138
:10186000AFF25830FEF714FD25B1012D07D0022D3F
:101870000FD109E0A068374900EA01060BE0A06833
:10188000354900EA010606E0A068344900EA01068D
:1018900001E0002600BF00BF3149701A8E4216D009
:1018A00007DC86B16FF08060304470B1022818D137
:1018B00011E0B0F5007F10D02A49084448B1B0F5D6
:1018C000003F0ED10BE002260DE000260BE00026C3
:1018D00009E0002607E0012605E0012603E00126D5
:1018E00001E0002600BF00BFF0B270BD70B5044635
:1018F0000D461648844202D01548844200D105E0C6
:1019000040F2BD21AFF2FC30FEF7C2FC022D00DC3C
:1019100005E040F2BE21AFF20C40FEF7B9FC25B164
:10192000012D07D0022D1FD109E0A06840F08000F2
:10193000A0601AE0A06840F40040A06015E0A06834
:1019400040F40000A06010E0006600400064004029
:1019500000680040030000040003000800000310BA
:10196000000100080001FFF700BF00BF70BD70B5A7
:1019700004460D461646FE48844202D0FD48844285
:1019800000D105E04FF43B71AFF28040FEF780FCE0
:101990000DB1012D00D105E040F2ED21AFF29440F0
:1019A000FEF776FC04F5D87000EB0510006800F037
:1019B00004003072307A50B904F5D87000EB05108D
:1019C000006840F2FF7101EA5050306009E004F510
:1019D000D87000EB051000686FF0604101EAD0009C
:1019E000706004F5D87000EB0510006800F002008C
:1019F000707204F5D87000EB0510406800F00F001D
:101A0000B07204F5D87000EB05104068000AF0745D
:101A100004F5D87000EB05108068F07204F5D870FA
:101A200000EB05108068010A317304F5D87000EBF3
:101A300005108068010C717304F5D87000EB051077
:101A40008068000EB07304F5D87000EB0510C06814
:101A5000F07304F5D87000EB0510C068010A31740A
:101A600004F5D87000EB0510C068010C717404F522
:101A7000D87000EB0510C068000EB07425B9E0689E
:101A800040F02000E06003E0206940F02000206189
:101A900070BD70B504460D46B548844202D0B548C5
:101AA000844200D105E040F21D31AFF2A050FEF7B4
:101AB000EFFB0DB1012D00D105E040F21E31AFF278
:101AC000B450FEF7E5FB25B9E06840F02000E06087
:101AD00003E0206940F02000206170BD70B504462D
:101AE0000D460026A248844202D0A248844200D17A
:101AF00005E040F23531AFF2EC50FEF7C9FB0DB115
:101B0000012D00D105E040F23631AFF20060FEF762
:101B1000BFFB1DB9E06800F0030606E0012D03D10C
:101B2000206900F0030600E00026304670BD2DE974
:101B3000F04104460D4600274FF6FF768C4884425C
:101B400002D08C48844200D105E040F26B31AFF204
:101B50004460FEF79DFB1DB1012D01D0022D00D187
:101B600005E04FF45B71AFF25C60FEF791FBBDB92D
:101B7000206820F0020040F00100206000E0761EA6
:101B8000606800F00300012801D0002EF7D16068E2
:101B900000F00300012801D0002732E0012730E0E7
:101BA000012D13D1206820F00300206000E0761E94
:101BB000606800F0030008B1002EF8D1606800F002
:101BC000030008B100271CE001271AE0022D17D1FD
:101BD000206820F0010040F00200206000E0761E46
:101BE000606800F00300022801D0002EF7D1606881
:101BF00000F00300022801D0002702E0012700E0E6
:101C000000273846BDE8F08170B5044600255848E5
:101C1000844202D05748844200D105E040F2B931F5
:101C2000AFF21870FEF734FB206820F0010040F09E
:101C300002002060606800F00300022800D1012546
:101C4000284670BD70B504464FF6FF75002648481B
:101C5000844202D04748844200D105E040F2D331AB
:101C6000AFF25870FEF714FB206820F002002060ED
:101C700000E06D1E606800F00200022801D1002D16
:101C8000F7D1606800F00200022800D0012630463B
:101C900070BD70B5044600253548844202D03548F1
:101CA000844200D105E04FF48261AFF2A070FEF7EC
:101CB000EFFAA06900F07005284670BD70B50446C3
:101CC00000252B48844202D02A48844200D105E0F6
:101CD00040F22941AFF2CC70FEF7DAFAA069050EA6
:101CE000284670BD70B5044600252148844202D0C4
:101CF0002048844200D105E040F23D41AFF2F4704B
:101D0000FEF7C6FAA069C0F30745284670BD70B556
:101D100005460C4616461648854202D015488542AF
:101D200000D105E040F20A51AFF62000FEF7B0FA0C
:101D3000012C25D0022C23D0042C21D0082C1FD01C
:101D4000102C1DD0202C1BD0402C19D0B4F5807F36
:101D500016D0B4F5007F13D0B4F5806F10D0B4F571
:101D6000006F0DD0B4F5004F0AD0B4F5803F03E00A
:101D7000006400400068004002D0B4F5003F00D18C
:101D800005E040F20B51AFF67C00FEF781FA0EB190
:101D9000012E00D105E040F20C51AFF69000FEF7A5
:101DA00077FA1EB168692043686102E06869A04360
:101DB000686170BD70B505460C460026FA4885423C
:101DC00002D0FA48854200D105E040F23451AFF626
:101DD000C400FEF75DFAF64884422DD0F5488442EF
:101DE0002AD0801E844227D0401E844224D0F2484C
:101DF000844221D0F14884421ED0F0480838844201
:101E00001AD0EF48844217D0EE48844214D0ED48EF
:101E10000838844210D0EC4884420DD0EB4884420C
:101E20000AD0EB48844207D0E948FF38844203D007
:101E3000E1480A30844200D105E040F23551AFF666
:101E40003410FEF725FA04F4700040B1A869C4F319
:101E50001301084008B101262DE000262BE004F014
:101E6000807040B16868C4F31301084008B10126CE
:101E700021E000261FE004F0006040B1A868C4F330
:101E80001301084008B1012615E0002613E004F014
:101E9000007040B1E868C4F31301084008B101269E
:101EA00009E0002607E02869C4F31301084008B1DF
:101EB000012600E00026304670BD70B505460C4690
:101EC0000026B948854202D0B848854200D105E0D5
:101ED00040F29751AFF6CC10FEF7DAF9B4488442DD
:101EE0001ED0BA4884421BD0B948844218D0B848A2
:101EF000FF38844214D0B1480838844210D0AF482B
:101F000084420DD0AF480838844209D0AD4884429D
:101F100006D0A948844203D0A7480A30844200D1A1
:101F200005E04FF4B361AFF61C20FEF7B1F9A0480D
:101F3000844202D10020A86111E0C4F3130604F02A
:101F4000007008B1EE600AE004F0806008B12E6114
:101F500005E004F0006008B1AE6000E06E6070BDA6
:101F60000246002002EA01030BB1012000E000203C
:101F7000704770B504460D4600268B48844202D057
:101F80008A48844200D105E040F2D351AFF6842064
:101F9000FEF77EF9012D20D0022D1ED0042D1CD07D
:101FA000082D1AD0102D18D0202D16D0402D14D069
:101FB000B5F5807F11D0B5F5007F0ED0B5F5806FF7
:101FC0000BD0B5F5006F08D0B5F5004F05D0B5F5CD
:101FD000803F02D0B5F5003F00D105E040F2D4517A
:101FE000AFF6D820FEF754F960692840002871D078
:101FF000B5F5807F5CD010DC082D35D006DC012DD6
:1020000020D0022D24D0042D72D127E0102D31D004
:10201000202D35D0402D6BD138E0B5F5004F60D084
:1020200009DCB5F5007F49D0B5F5806F4CD0B5F52A
:10203000006F5DD14FE0B5F5803F2DD0B5F5003F85
:1020400056D12FE0A0686349FFF78AFF064651E0AA
:10205000E0680321FFF784FF06464BE0E0680821B3
:10206000FFF77EFF064645E0E0681021FFF778FFA6
:1020700006463FE020690321FFF772FF064639E07C
:1020800020690821FFF76CFF064633E02069102124
:10209000FFF766FF06462DE060680821FFF760FF46
:1020A000064627E060681021FFF75AFF064621E048
:1020B000A0690121FFF754FF06461BE0A069022139
:1020C000FFF74EFF064615E0A0690421FFF748FF21
:1020D00006460FE00FE0A0697021FFF741FF0646BA
:1020E00008E060680421FFF73BFF064602E0FFE7D7
:1020F000002600BF00E00026304670BD70B50446E3
:102100000D462948844202D02848844200D105E087
:1021100040F23A61AFF60C40FEF7BAF8012D1CD040
:10212000042D1AD0082D18D0202D16D0402D14D0F3
:10213000B5F5807F11D0B5F5007F0ED0B5F5806F75
:102140000BD0B5F5006F08D0B5F5004F05D0B5F54B
:10215000803F02D0B5F5003F00D105E040F23B6181
:10216000AFF65840FEF794F8B5F5007F53D00FDC7A
:10217000202D41D006DC012D35D0042D36D0082D80
:1021800059D136E0402D3AD0B5F5807F53D13FE0AC
:10219000B5F5004F4AD01FDCB5F5806F3ED0B5F5E0
:1021A000006F48D13DE0000000640040006800403E
:1021B0007000F0300400F010080000311000003210
:1021C0000300001210000034030000140000013866
:1021D0000001003801010100B5F5803F12D0B5F5CE
:1021E000003F28D111E01548A06025E00820E060FC
:1021F00022E01020E0601FE0082020611CE0102099
:10220000206119E00820606016E01020606013E093
:102210000420606010E0042060600DE00420606035
:102220000AE00020A0610420606005E00020A061B9
:102230000420606000E000BF00BF70BD010101002C
:1022400010B50446FE4884423AD0FD481830844216
:1022500036D0FB483030844232D0F948483084428E
:102260002ED0F748603084422AD0F5487830844236
:1022700026D0F3489030844222D0F148A8308442DE
:102280001ED0F04884421BD0EE481830844217D04C
:10229000EC483030844213D0EA48483084420FD0B2
:1022A000E848603084420BD0E6487830844207D05A
:1022B000E4489030844203D0E248A830844200D100
:1022C00003E0BF21E0A0FDF7E3FF206820F001005C
:1022D0002060002020606060A060E060206121201C
:1022E0006061D748844204D13D20D54910398860C7
:1022F0008CE0D3481830844205D14FF47460D04943
:102300001039886082E0CE483030844205D14FF4E5
:102310007410CB491039886078E0C948483084424D
:1023200005D14FF07460C649103988606EE0C4482A
:102330006030844204D1D348C1491039C86065E097
:10234000BF487830844204D1CF48BD491039C860B5
:102350005CE0BB489030844204D1CC48B849103985
:10236000C86053E0B648A830844205D14FF03D50D4
:10237000B3491039C86049E0B248844204D13D20D5
:10238000B0490839086041E0AE481830844205D1B0
:102390004FF47460AB490839086037E0A948303021
:1023A000844205D14FF47410A649083908602DE025
:1023B000A4484830844205D14FF07460A1490839DF
:1023C000086023E09F486030844204D1AD489D49B5
:1023D000091F08601AE09B487830844204D1AA485B
:1023E0009849091F086011E096489030844204D152
:1023F000A6489449091F086008E09248A830844222
:1024000004D14FF03D508F49091F086010BD70B5D1
:1024100005460C4600268A4885423AD0884818303E
:10242000854236D086483030854232D084484830A4
:1024300085422ED08248603085422AD0804878304C
:10244000854226D07E489030854222D07C48A830F4
:1024500085421ED07B4885421BD07A481830854281
:1024600017D078483030854213D0764848308542BE
:102470000FD07448603085420BD072487830854266
:1024800007D070489030854203D06E48A83085420E
:1024900000D104E04FF49E716BA0FDF7F9FE2068B7
:1024A000D8B12068B0F1007F17D02068B0F1806FFC
:1024B00013D02068B0F1C06F0FD02068B0F1006F6A
:1024C0000BD02068B0F1206F07D02068B0F1406FCA
:1024D00003D02068B0F1606F00D104E040F23D11FC
:1024E00059A0FDF7D5FEE06828B1E068402802D089
:1024F000E068802800D104E04FF49F7152A0FDF7FE
:10250000C7FE206920B12069B0F5803F00D204E009
:1025100040F23F114CA0FDF7BBFE6069B0F5007FB3
:1025200001D0606900B904E04FF4A07146A0FDF746
:10253000AFFEA069B0F5806F01D0A06900B904E0DA
:1025400040F2411140A0FDF7A3FEE06938B1E06917
:10255000B0F5006F03D0E069B0F5805F00D104E012
:102560004FF4A17138A0FDF793FE206A38B1206ABC
:10257000B0F5005F03D0206AB0F5804F00D104E0D1
:1025800040F2431130A0FDF783FE606A18B1606A23
:10259000B0F5807F00D104E04FF4A2712AA0FDF7CE
:1025A00077FEA06A58B1A06AB0F5803F07D0A06A54
:1025B000B0F5003F03D0A06AB0F5403F00D104E081
:1025C00040F2451120A0FDF763FEE06A10B1E06A19
:1025D000042800D104E04FF4A3711BA0FDF758FEBE
:1025E000206B40B1206B012805D0206B022802D05F
:1025F000206B032800D104E040F2471112A0FDF740
:1026000047FE606B58B1606BB0F5000F07D0606B90
:10261000B0F1807F03D0606BB0F1C07F00D104E0E7
:102620004FF4A47108A0FDF733FEA06B80B3A06B3C
:10263000B0F5001F31D0A06BB0F5800F2DD028E091
:1026400010600240106402404C69627261726965F8
:10265000735C53544D3332463478785F537464500E
:1026600065726970685F4472697665725C737263E3
:102670005C73746D3332663478785F646D612E6399
:10268000000000003D000020400F002000003D2021
:1026900003E0A06BB0F5C00F00D105E040F2491196
:1026A000AFF25C00FDF7F4FD2E68FE480640E168DD
:1026B0002068084361690843A1690843E169084348
:1026C000216A0843616A0843A16A0843616B0843B1
:1026D000A16B084306432E606E6926F00706D4E915
:1026E0000B01084306436E61206968606068A8605A
:1026F000A068E86070BD0021016041608160C16038
:10270000016141618161C161016241628162C162B5
:10271000016341638163704770B504460D46E2482A
:1027200084423AD0E0481830844236D0DE48303017
:10273000844232D0DC48483084422ED0DA486030BF
:1027400084422AD0D8487830844226D0D648903067
:10275000844222D0D448A83084421ED0D348844238
:102760001BD0D2481830844217D0D0483030844231
:1027700013D0CE48483084420FD0CC4860308442D9
:102780000BD0CA487830844207D0C8489030844281
:1027900003D0C648A830844200D105E040F2D911E8
:1027A000AFF25C10FDF774FD0DB1012D00D105E015
:1027B0004FF4ED71AFF27010FDF76AFD25B120689E
:1027C00040F00100206003E0206820F0010020605C
:1027D00070BD70B504460D46B34884423AD0B24845
:1027E0001830844236D0B0483030844232D0AE48BF
:1027F000483084422ED0AC48603084422AD0AA4867
:102800007830844226D0A8489030844222D0A6480E
:10281000A83084421ED0A54884421BD0A34818305B
:10282000844217D0A1483030844213D09F484830AA
:1028300084420FD09D48603084420BD09B48783052
:10284000844207D099489030844203D09748A830FA
:10285000844200D105E040F2FD11AFF21420FDF7F3
:1028600017FD15B1B5F5004F00D105E04FF4FF712C
:10287000AFF22C20FDF70CFD25B1206840F400409C
:10288000206003E0206820F40040206070BD70B537
:1028900004460D46844884423AD083481830844226
:1028A00036D081483030844232D07F48483084422C
:1028B0002ED07D48603084422AD07B4878308442D4
:1028C00026D079489030844222D07748A83084427C
:1028D0001ED0764884421BD074481830844217D0EA
:1028E00072483030844213D07048483084420FD050
:1028F0006E48603084420BD06C487830844207D0F8
:102900006A489030844203D06848A830844200D19D
:1029100005E040F22121AFF2D020FDF7B9FC0DB166
:10292000202D00D105E040F22221AFF2E420FDF796
:10293000AFFC25B1206840F02000206003E0206853
:1029400020F02000206070BD70B504460D4656484A
:1029500084423AD054481830844236D052483030FD
:10296000844232D05048483084422ED04E486030A5
:1029700084422AD04C487830844226D04A4890304D
:10298000844222D04848A83084421ED0474884421E
:102990001BD046481830844217D044483030844217
:1029A00013D04248483084420FD0404860308442BF
:1029B0000BD03E487830844207D03C489030844267
:1029C00003D03A48A830844200D105E040F2752196
:1029D000AFF28C30FDF75CFC656070BD10B504464D
:1029E000314884423AD030481830844236D02E489C
:1029F0003030844232D02C48483084422ED02A488D
:102A0000603084422AD028487830844226D0264834
:102A10009030844222D02448A83084421ED02348DB
:102A200084421BD021481830844217D01F483030D0
:102A3000844213D01D48483084420FD01B48603078
:102A400084420BD019487830844207D01748903020
:102A5000844203D01548A830844200D105E04FF4E9
:102A60002171AFF21C40FDF713FC606880B210BD0D
:102A700070B504460E4615460B48844240D00A48BD
:102A8000183084423CD008483030844238D0064860
:102A90004830844234D004486030844230D0024808
:102AA000783005E03F801CF0106002401064024066
:102AB000844225D0FE48844222D0FD48183084420A
:102AC0001ED0FC4884421BD0FA481830844217D0EC
:102AD000F8483030844213D0F648483084420FD052
:102AE000F448603084420BD0F2487830844207D0FA
:102AF000F0489030844203D0EE48A830844200D1A0
:102B000005E040F2D221AFF2C040FDF7C1FB15B1A4
:102B1000B5F5002F00D105E040F2D321AFF2D84047
:102B2000FDF7B6FB25B1206840F40020206003E0EB
:102B3000206820F400202060266170BD70B5044636
:102B40000D46DB489038844239D0D94878388442E1
:102B500035D0D7486038844231D0D548483884428F
:102B60002DD0D3483038844229D0D14818388442F7
:102B700025D0CF48844222D0CD48183084421ED080
:102B8000CC4884421BD0CB481830844217D0C94867
:102B90003030844213D0C748483084420FD0C548F3
:102BA000603084420BD0C3487830844207D0C1489B
:102BB0009030844203D0BF48A830844200D105E061
:102BC0004FF43C71AFF28050FDF762FB0DB1012D67
:102BD00000D105E040F2F121AFF29450FDF758FB2F
:102BE00025B1206840F48020206003E0206820F4B4
:102BF0008020206070BD70B504460E461546AC4876
:102C00009038844239D0AA487838844235D0A848D0
:102C10006038844231D0A648483884422DD0A44838
:102C20003038844229D0A2481838844225D0A048A0
:102C3000844222D09E48183084421ED09D4884424F
:102C40001BD09C481830844217D09A4830308442B8
:102C500013D09848483084420FD096486030844260
:102C60000BD094487830844207D092489030844208
:102C700003D09048A830844200D105E040F21A31D8
:102C8000AFF23C60FDF704FB15B1B5F5002F00D1A4
:102C900005E040F21B31AFF25060FDF7F9FA0DB1DB
:102CA000266100E0E66070BD70B5044600258048EE
:102CB0009038844239D07E487838844235D07C4878
:102CC0006038844231D07A48483884422DD07848E0
:102CD0003038844229D076481838844225D0744848
:102CE000844222D07248183084421ED071488442F7
:102CF0001BD070481830844217D06E483030844260
:102D000013D06C48483084420FD06A486030844207
:102D10000BD068487830844207D0664890308442AF
:102D200003D06448A830844200D105E040F2353138
:102D3000AFF2EC60FDF7ACFA206800F4002008B1B7
:102D4000012500E00025284670BD70B50446002529
:102D500057489038844239D055487838844235D025
:102D600053486038844231D05148483884422DD08D
:102D70004F483038844229D04D481838844225D0F5
:102D80004B48844222D04A48183084421ED04948D9
:102D900084421BD047481830844217D04548303011
:102DA000844213D04348483084420FD041486030B9
:102DB00084420BD03F487830844207D03D48903061
:102DC000844203D03B48A830844200D105E040F261
:102DD000A231AFF28C70FDF75BFA206800F00100C1
:102DE00008B1012500E00025284670BD70B50446F5
:102DF00000252F489038844239D02D4878388442B5
:102E000035D02B486038844231D029484838844234
:102E10002DD027483038844229D02548183884429C
:102E200025D02348844222D02148183084421ED025
:102E3000204884421BD01F481830844217D01D48B8
:102E40003030844213D01B48483084420FD0194898
:102E5000603084420BD017487830844207D0154840
:102E60009030844203D01348A830844200D105E05A
:102E70004FF47171AFF63000FDF70AFA606900F0A7
:102E80003805284670BD2DE9F04105460C464FF047
:102E9000000800270648903885423ED0044878381C
:102EA00085423AD002486038854236D0004803E077
:102EB000A060024010640240483885422DD0FE4890
:102EC00085422AD0FC481830854226D0FA48303056
:102ED000854222D0F848483085421ED0F7488542C6
:102EE0001BD0F6481830854217D0F4483030854260
:102EF00013D0F248483085420FD0F0486030854208
:102F00000BD0EE487830854207D0EC4890308542AF
:102F100003D0EA48A830854200D105E040F2E13113
:102F2000AFF6DC00FDF7B4F9E54884427CD0E44814
:102F30001038844278D0E2481838844274D0E1488E
:102F4000844271D0C01E84426ED0DF4884426BD070
:102F5000DE48844268D0DE48844265D0D848E030FC
:102F6000844261D0D648203084425DD0B4F1815F84
:102F70005AD0D848844257D0D748844254D0D748F2
:102F8000844251D0D64884424ED0B4F1C05F4BD079
:102F9000B4F1A05F48D0B4F1905F45D0B4F1885F40
:102FA00042D0B4F1825F3FD0CE4884423CD0CD487D
:102FB0001038844238D0CB481838844234D0001FAF
:102FC000844231D0C01E84422ED0C74884422BD0C8
:102FD000C648844228D0C648844225D0C148E03043
:102FE000844221D0BF48203084421DD0C148844251
:102FF0001AD0C148844217D0C048844214D0C04877
:10300000844211D0BF4884420ED0B4F1205F0BD06F
:10301000B4F1105F08D0B4F1085F05D0B4F1045FDB
:1030200002D0B4F1015F00D105E040F2E231AFF629
:10303000E810FDF72DF9A148854202D29E4E703E60
:1030400001E09E4E103E04F0005008B1776800E0A9
:103050003768AD48074007EA040010B14FF0010897
:1030600001E04FF000084046BDE8F08170B504462D
:103070000D4691486038844239D08F4848388442A0
:1030800035D08D483038844231D08B48183884424E
:103090002DD0894884422AD087481830844226D0CF
:1030A00085483030844222D08348483084421ED044
:1030B000824884421BD081481830844217D07F4810
:1030C0003030844213D07D48483084420FD07B4852
:1030D000603084420BD079487830844207D07748FA
:1030E0009030844203D07548A830844200D105E076
:1030F00040F22241AFF6B020FDF7CAF805F040508B
:10310000B0F1405F07D005F0405020B17F48284023
:1031100008B905B105E040F22341AFF6D420FDF730
:10312000B7F86648844202D2634E703E01E0634EB7
:10313000103E05F0005018B173482840F06002E0DE
:1031400071482840B06070BD70B504460D46164603
:1031500059486038844239D057484838844235D07D
:1031600055483038844231D05348183884422DD0E5
:10317000514884422AD050481830844226D04E48C4
:103180003030844222D04C48483084421ED04B48D4
:1031900084421BD049481830844217D04748303009
:1031A000844213D04548483084420FD043486030B1
:1031B00084420BD041487830844207D03F48903059
:1031C000844203D03D48A830844200D105E040F25B
:1031D0004F41AFF68C30FDF75BF825F09E0008B943
:1031E00005B105E04FF48A61AFF6A430FDF750F861
:1031F0000EB1012E00D105E040F25141AFF6B830DA
:10320000FDF746F805F0800048B126B1606940F04E
:103210008000606103E0606920F080006061802DC3
:103220000BD02EB1206805F01E010843206004E099
:10323000206805F01E018843206070BD2DE9F0472D
:1032400005460C464FF000080027B9461A4860387A
:10325000854265D018484838854261D016483038D4
:1032600085425DD014481838854259D012488542AD
:1032700056D011481830854252D00F483030854220
:103280004ED00D48483085424AD00C48854247D040
:103290000A481830854243D00848303085423FD034
:1032A0000648483085423BD004486030854237D0DC
:1032B0000248783085422BE0706002401064024082
:1032C000200000100400801000080010000400100E
:1032D0000002001000001010000008100000041090
:1032E0000000011020000020000800200004002041
:1032F0000002002000002020000010200000082014
:1033000000000420000001207D0F7D0F82F082C0AC
:1033100006D09548854203D093481830854200D1A5
:1033200005E040F28741AFF6E040FCF7B1FF8F487F
:10333000844278D08E48844275D08E48844272D0C0
:103340008D4884426FD08D4884426CD08C48844232
:1033500069D08C48844266D08B48844263D08648CA
:10336000FC3084425FD085483F3084425BD0874840
:10337000844258D08648844255D08648844252D0F0
:10338000854884424FD0854884424CD0844884424A
:1033900049D08448844246D08348844243D08348FD
:1033A000844240D0824884423DD0824884423AD010
:1033B0008148844237D08148844234D08048844256
:1033C00031D0804884422ED07F4884422BD07F4821
:1033D000844228D07E48844225D07948FC308442FB
:1033E00021D078483F3084421DD07A4884421AD098
:1033F0007948844217D07948844214D0784884426E
:1034000011D0784884420ED0774884420BD0774858
:10341000844208D07648844205D07648844202D05F
:103420007548844200D105E04FF49161AFF6E85051
:10343000FCF72EFF4C489038854201D26F4E01E0D8
:10344000494EA03E6E48204030B11E2000EAD427ED
:10345000286800EA070902E0686900F0800904F0C2
:10346000005008B1776800E037686648074007EA0F
:10347000040028B1B9F1000F02D04FF0010801E0BB
:103480004FF000084046BDE8F08770B504460D4691
:103490005A48103084423AD058482830844236D0B6
:1034A00056484030844232D05448583084422ED05E
:1034B0005248703084422AD050488830844226D006
:1034C0004E48A030844222D04C48B83084421ED0AE
:1034D0002548903884421AD023487838844216D040
:1034E00021486038844212D01F48483884420ED0A8
:1034F0001D48303884420AD01B481838844206D010
:103500001948844203D018481830844200D105E09D
:1035100040F2D741AFF6D060FCF7BAFE05F040505C
:10352000B0F1405F07D005F0405020B11DB13648E2
:10353000284000B905E04FF49B61AFF6F460FCF75A
:10354000A7FE09489038844201D22C4E01E0064E75
:10355000A03E05F0005018B12A482840F06002E073
:1035600028482840B06070BDA06402402080001050
:1035700010400010082000100410001001000090FE
:10358000008800100044001000220010008020106D
:1035900000401010002008100010041000000190DE
:1035A00000800018004000140020001200100011DC
:1035B00000004090208000201040002008200020C3
:1035C00004100020010000A000880020004400201A
:1035D0000022002000802020004010200020082031
:1035E00000100420000001A00080002800400024FA
:1035F0000020002200100021000040A000600240D6
:103600003C0F3C0F7D0F7D0F8200824010B50446B9
:103610002CB1022C03D0042C01D0062C00D103E0E5
:103620007721FBA0FCF734FE34B943F2DB01A000A4
:10363000A0F1C040016005E043F2D201A000A0F17A
:10364000C04001606FF07041601C8000A0F1C0407C
:103650000160A000A0F1C040C0F8041110BD10B579
:103660000446206840B12068022805D0206804285C
:1036700002D02068062800D103E09221E4A0FCF7E4
:1036800007FE606810B16068022800D103E0932152
:10369000DFA0FCF7FDFDA06828B1A068042802D0D7
:1036A000A068082800D103E09421D9A0FCF7F0FD20
:1036B000E06810B1E068102800D103E09521D4A0A3
:1036C000FCF7E6FD206918B12069B0F5807F00D1D4
:1036D00003E09621CEA0FCF7DBFD606918B16069BC
:1036E000B0F5004F00D103E09721C9A0FCF7D0FD51
:1036F000A06918B1A069B0F5007F00D103E098215E
:10370000C3A0FCF7C5FDE06918B1E069B0F5806FB2
:1037100000D103E09921BEA0FCF7BAFD206A18B1E0
:10372000206AB0F5006F00D103E09A21B8A0FCF741
:10373000AFFD606A18B1606AB0F5805F00D103E048
:103740009B21B3A0FCF7A4FDA06A18B1A06AB0F554
:10375000005F00D103E09C21ADA0FCF799FDE06A79
:1037600018B1E06AB0F5804F00D103E09D21A8A018
:10377000FCF78EFD206B18B1206BB0F5002F00D147
:1037800003E09E21A2A0FCF783FD606B00680F2878
:1037900000D803E09F219EA0FCF77AFD606B406893
:1037A0000F2800D803E0A02199A0FCF771FD606B01
:1037B000806820B1606B8068FF2800D803E0A121F9
:1037C00093A0FCF765FD606BC0680F2800D803E08C
:1037D000A2218FA0FCF75CFD606B00690F2800D868
:1037E00003E0A3218AA0FCF753FD606B40690F281A
:1037F00000D803E0A42186A0FCF74AFD606B806935
:1038000070B1606B8069B0F1805F09D0606B8069D6
:10381000B0F1005F04D0606B8069B0F1405F00D10F
:1038200003E0A5217AA0FCF733FDD4E901010843A8
:10383000E16808432169084361690843A1690843B5
:10384000E1690843216A0843616A0843A16A0843A1
:10385000E16A0843216B084321688900A1F1C04156
:103860000860A06808280BD120688000A0F1C04043
:10387000006840F0400120688000A0F1C040016075
:10388000606B0068616B496840EA0110616B896890
:1038900040EA0120616B898940EA0140616B098A35
:1038A00040EA0150616B097D40EA0160616B896902
:1038B00008432168491C8900A1F1C0410860E06A01
:1038C000B0F5804F62D1A06B00680F2800D803E0EC
:1038D000C7214FA0FCF7DCFCA06B40680F2800D884
:1038E00003E0C8214AA0FCF7D3FCA06B806820B19C
:1038F000A06B8068FF2800D803E0C92144A0FCF732
:10390000C7FCA06B00690F2800D803E0CA2140A0C3
:10391000FCF7BEFCA06B40690F2800D803E0CB2168
:103920003BA0FCF7B5FCA06B806970B1A06B80690F
:10393000B0F1805F09D0A06B8069B0F1005F04D066
:10394000A06B8069B0F1405F00D103E0CC2130A0D2
:10395000FCF79EFCA06B0068A16B496840EA01106F
:10396000A16B896840EA0120A16B098A40EA0150F5
:10397000A16B097D40EA0160A16B89690843216858
:103980008900A1F1C041C1F8040107E06FF0704166
:1039900020688000A0F1C040C0F8041110BD0021D3
:1039A00001600221416000218160C16001614161CB
:1039B0008161C16101624FF48051416249008162BD
:1039C0000021C16201630F21426B1160426B5160A3
:1039D000FF21426B91600F21426BD160426B1161FC
:1039E000426B51610021426B91610F21826B11602A
:1039F000826B5160FF21826B91600F21826BD160DD
:103A0000826B1161826B51610021826B9161704701
:103A10004C69627261726965735C53544D3332460E
:103A20003478785F5374645065726970685F44726B
:103A3000697665725C7372635C73746D333266347D
:103A400078785F66736D632E6300000070B504467E
:103A50000D462CB1022C03D0042C01D0062C00D131
:103A600005E04FF48771AFF25800FCF711FC0DB17F
:103A7000012D00D105E040F20F11AFF26C00FCF710
:103A800007FC55B1A000A0F1C040006840F0010162
:103A9000A000A0F1C040016009E0A000A0F1C0407A
:103AA0000068FA490840A100A1F1C041086070BD5A
:103AB00010B50446102C02D0B4F5807F00D105E08B
:103AC0004FF4AB71AFF2B800FCF7E2FB102C0AD157
:103AD00018204FF020410866402048664FF0FC3027
:103AE0008866C86610E01820E949086040204FF059
:103AF0002041C1F884004FF0FC30E54908310860EE
:103B00004FF02041C1F88C0010BD2DE9F041044672
:103B10000025002600272068102803D02068B0F573
:103B2000807F00D105E040F27711AFF21C10FCF766
:103B3000AFFB606810B16068022800D105E04FF467
:103B4000BC71AFF23410FCF7A3FBA06810B1A06801
:103B5000102800D105E040F27911AFF24C10FCF7CB
:103B600097FBE06810B1E068402800D105E04FF411
:103B7000BD71AFF26410FCF78BFB206998B120692E
:103B8000B0F5003F0FD02069B0F5802F0BD0206931
:103B9000B0F5C02F07D02069B0F5002F03D0206901
:103BA000B0F5202F00D105E040F27B11AFF2A0105C
:103BB000FCF76EFB6069FF2800D805E04FF4BE718A
:103BC000AFF2B410FCF764FBA069FF2800D805E051
:103BD00040F27D11AFF2C810FCF75AFBE0690068B3
:103BE000FF2800D805E04FF4BF71AFF2DC10FCF7FE
:103BF0004FFBE0694068FF2800D805E040F27F11E4
:103C0000AFF2F410FCF744FBE0698068FF2800D8AD
:103C100005E04FF4C071AFF20820FCF739FBE06912
:103C2000C068FF2800D805E040F28111AFF22020E3
:103C3000FCF72EFB206A0068FF2800D805E04FF44F
:103C4000C171AFF23420FCF723FB206A4068FF28E3
:103C500000D805E040F28311AFF24C20FCF718FBCE
:103C6000206A8068FF2800D805E04FF4C271AFF2E7
:103C70006020FCF70DFB206AC068FF2800D805E033
:103C800040F28511AFF27820FCF702FB606840F04B
:103C90000800A1680843E168084321690843616995
:103CA00040EA4120A16940EA4135E0690068E169E4
:103CB000496840EA0120E169098940EA0140E16977
:103CC000097B40EA0166206A0068216A496840EA87
:103CD0000120216A098940EA0140216A097B40EA02
:103CE00001672068102805D14FF0204005668666E0
:103CF000C76608E0664805604FF02040C0F888605D
:103D000063480C300760BDE8F0811021016000219C
:103D100041608160C160016141618161FC21C269D2
:103D20001160C2695160C2699160C269D160026A62
:103D30001160026A5160026A9160026AD160704744
:103D400070B504460D46102C02D0B4F5807F00D12A
:103D500005E04FF4E971AFF24830FCF799FA0DB184
:103D6000012D00D105E040F2D311AFF25C30FCF739
:103D70008FFA9DB1102C08D14FF02040006E40F01A
:103D800004004FF0204108661DE04148006840F003
:103D900004004FF02041C1F8800014E0102C09D13C
:103DA0004FF02040006E3949C91E08404FF02041B5
:103DB000086608E0364800683449C91E08404FF0DC
:103DC0002041C1F8800070BD70B504460D46102C2E
:103DD00002D0B4F5807F00D105E04FF4FD71AFF261
:103DE000D030FCF755FA0DB1012D00D105E040F2BD
:103DF000FB11AFF2E430FCF74BFA9DB1102C08D167
:103E00004FF02040006E40F040004FF02041086627
:103E10001DE01F48006840F040004FF02041C1F80D
:103E2000800014E0102C09D14FF02040006E17499B
:103E30003F3908404FF02041086608E01448006808
:103E400012493F3908404FF02041C1F8800070BD51
:103E500001460020102903D14FF02042506F02E0AC
:103E60000B4A143210687047182009492031086045
:103E700000200906C1F8A4004FF0FC3004492831A5
:103E80000860091D0860091D08607047FEFF0F00EB
:103E9000800000A010B50446206810B120680228F8
:103EA00000D105E040F27321AFF29C40FCF7F0F93D
:103EB0006068FF2800D805E04FF41D71AFF2B040F4
:103EC000FCF7E6F9A068FF2800D805E040F275216C
:103ED000AFF2C440FCF7DCF9E0680068FF2800D8C6
:103EE00005E040F27721AFF2D840FCF7D1F9E06865
:103EF0004068FF2800D805E04FF41E71AFF2F04093
:103F0000FCF7C6F9E0688068FF2800D805E040F2B9
:103F10007921AFF20450FCF7BBF9E068C068FF28D4
:103F200000D805E040F27A21AFF21C50FCF7B0F95E
:103F300020690068FF2800D805E04FF41F71AFF238
:103F40003050FCF7A5F920694068FF2800D805E04B
:103F500040F27D21AFF24850FCF79AF92069806861
:103F6000FF2800D805E040F27E21AFF25C50FCF75C
:103F70008FF92069C068FF2800D805E040F27F2152
:103F8000AFF27450FCF784F960690068FF2800D82C
:103F900005E04FF42071AFF28850FCF779F96069C1
:103FA0004068FF2800D805E040F28121AFF2A05020
:103FB000FCF76EF960698068FF2800D805E040F2E0
:103FC0008221AFF2B450FCF763F96069C068FF2842
:103FD00000D805E040F28321AFF2CC50FCF758F94D
:103FE000206840F01000616840EA4120A16840EA82
:103FF0004130EB490860E0680068E168496840EAE0
:104000000120E168098940EA0140E168097B40EA52
:104010000160E34908310860206900682169496846
:1040200040EA01202169098940EA01402169097BB0
:1040300040EA0160DA490C31086060690068616932
:10404000496840EA01206169098940EA01406169E3
:10405000097B40EA01604FF02041C1F8B00010BD7B
:104060000021016041608160FC21C2681160C2686A
:104070005160C2689160C268D160026911600269D2
:104080005160026991600269D160426911604269C0
:104090005160426991604269D160704710B5044631
:1040A0000CB1012C00D105E04FF43071AFF2A060EB
:1040B000FCF7EEF844B1BA48006840F004004FF055
:1040C0002041C1F8A00007E0B5480068B5490840A4
:1040D0004FF02041C1F8A00010BD70B505460C4658
:1040E0001646102D05D0B5F5807F02D0B5F5805F5E
:1040F00000D105E040F2EF21AFF2EC60FCF7C8F828
:1041000024F0380008B904B105E04FF43C71AFF277
:104110000070FCF7BDF80EB1012E00D105E040F2B1
:10412000F121AFF21470FCF7B3F8F6B1102D07D1FE
:104130004FF02040406E20434FF02041486632E06F
:10414000B5F5807F08D196481C38006820434FF0B1
:104150002041C1F8840026E09148001D00682043FA
:104160004FF02041C1F8A4001DE0102D07D14FF001
:104170002040406EA0434FF02041486613E0B5F563
:10418000807F08D186481C380068A0434FF020414A
:10419000C1F8840007E08248001D0068A0434FF08A
:1041A0002041C1F8A40070BD2DE9F04104460D4640
:1041B00000260027102C05D0B4F5807F02D0B4F57E
:1041C000805F00D105E040F22F31AFF2BC70FCF708
:1041D0005FF8012D05D0022D03D0042D01D0402D14
:1041E00000D105E04FF44C71AFF2DC70FCF750F8F1
:1041F000102C03D14FF02040476E09E0B4F5807FCA
:1042000003D167481C38076802E06548001D07684D
:1042100007EA050008B1012600E000263046BDE8A7
:10422000F08170B504460D46102C05D0B4F5807FA2
:1042300002D0B4F5805F00D105E040F25E31AFF608
:104240003000FCF725F825F0070008B905B105E0B6
:1042500040F25F31AFF64800FCF71AF8102C07D196
:104260004FF02040406EA8434FF02041486613E0D5
:10427000B4F5807F08D14A481C380068A8434FF045
:104280002041C1F8840007E04548001D0068A843AC
:104290004FF02041C1F8A40070BD2DE9F04704465D
:1042A0000D4600270026B046B146102C05D0B4F5C7
:1042B000807F02D0B4F5805F00D105E04FF46171DA
:1042C000AFF6B400FBF7E4FF082D03D0102D01D0AA
:1042D000202D00D105E040F28531AFF6CC00FBF790
:1042E000D7FF102C03D14FF02040466E09E0B4F503
:1042F000807F03D12A481C38066802E02848001D48
:10430000066806EA050806EAD509B8F1000F04D0E8
:10431000B9F1000F01D0012700E000273846BDE8C1
:10432000F08770B505460C46102D05D0B5F5807F99
:1043300002D0B5F5805F00D105E04FF46D71AFF6A6
:104340003010FBF7A5FF24F0380008B904B105E0F0
:1043500040F2B531AFF64810FBF79AFF102D08D1A7
:104360004FF02040406E20EAD4004FF020414866D4
:1043700015E0B5F5807F09D109481C38006820EAAE
:10438000D4004FF02041C1F8840008E00448001D2B
:10439000006820EAD4004FF02041C1F8A40070BDAD
:1043A000A00000A0FBFF0F0010B50446FA488442AD
:1043B00017D0FA48844214D0F948844211D0F94801
:1043C00084420ED0F84884420BD0F848844208D08A
:1043D000F748844205D0F748844202D0F648844228
:1043E00000D103E07B21F5A0FBF752FFEA488442AD
:1043F00008D10121084601F089F90021012001F0CE
:1044000085F95EE0E548844208D10121022001F0EF
:104410007DF90021022001F079F952E0E048844260
:1044200008D10121042001F071F90021042001F0DC
:104430006DF946E0DB48844208D10121082001F0F3
:1044400065F90021082001F061F93AE0D64884427C
:1044500008D10121102001F059F90021102001F0AC
:1044600055F92EE0D148844208D10121202001F0E5
:104470004DF90021202001F049F922E0CC48844286
:1044800008D10121402001F041F90021402001F034
:104490003DF916E0C748844208D10121802001F08F
:1044A00035F90021802001F031F90AE0C248844248
:1044B00007D10121801501F029F90021A01501F093
:1044C00025F910BD2DE9F04104460D4600260027D0
:1044D000B046B148844217D0B048844214D0B048A6
:1044E000844211D0AF4884420ED0AF4884420BD0F2
:1044F000AE48844208D0AE48844205D0AD488442DC
:1045000002D0AD48844200D103E0BB21ABA0FBF751
:10451000BFFE002010B9286800B103E0BC21A7A0AD
:10452000FBF7B6FE287940B12879012805D0287913
:10453000022802D02879032800D103E0BD219FA0E2
:10454000FBF7A6FEE87928B1E879012802D0E879DE
:10455000022800D103E0BE2198A0FBF799FE0026B7
:1045600057E0012000FA06F7286800EA0708B84576
:104570004ED1206872000321914088432060287941
:10458000710088402168084320602879012802D002
:104590002879022830D1687940B16879012805D09E
:1045A0006879022802D06879032800D103E0D0217D
:1045B00082A0FBF76DFEA068720003219140884342
:1045C000A060687971008840A1680843A060A8795C
:1045D00010B1A879012800D103E0D72177A0FBF71B
:1045E00057FE61680120B040814361606068A9792D
:1045F000B14089B208436060E068720003219140D5
:104600008843E060E87971008840E1680843E06031
:10461000761C102EA5D3BDE8F0814FF6FF71016026
:104620000021017141718171C171704738B5044633
:104630000D464FF4803000905748844217D05748B9
:10464000844214D05648844211D0564884420ED039
:10465000554884420BD05548844208D0544884427F
:1046600005D05448844202D05348844200D104E02B
:104670004FF4827151A0FBF70BFE002008B905B181
:1046800004E040F205114DA0FBF702FE009828431C
:1046900000900098E061E5610098E061E0690090B9
:1046A000E069009038BD70B505460C4600263A48D2
:1046B000854217D03948854214D03948854211D0F7
:1046C000384885420ED0384885420BD0374885425D
:1046D00008D03748854205D03648854202D0364852
:1046E000854200D104E04FF4987134A0FBF7D0FD6F
:1046F000012C25D0022C23D0042C21D0082C1FD033
:10470000102C1DD0202C1BD0402C19D0802C17D061
:10471000B4F5807F14D0B4F5007F11D0B4F5806F6C
:104720000ED0B4F5006F0BD0B4F5805F08D0B4F5AF
:10473000005F05D0B4F5804F02D0B4F5004F00D132
:1047400004E040F231111DA0FBF7A2FD28692040D2
:1047500008B1012600E00026304670BD10B50446C1
:104760000D48844217D00D48844214D00C4884422E
:1047700011D00C4884420ED00B4884420BD00B4819
:10478000844208D00A48844205D00A48844202D0B4
:104790000948844230D135E0000002400004024064
:1047A00000080240000C02400010024000140240C9
:1047B00000180240001C0240002002404C69627256
:1047C00061726965735C53544D3332463478785F57
:1047D0005374645065726970685F4472697665727B
:1047E0005C7372635C73746D3332663478785F67C0
:1047F00070696F2E630000004FF4A371AFF24400A4
:10480000FBF746FD206980B210BD70B505460C4629
:104810000026FE48854217D0FD48854214D0FD4849
:10482000854211D0FC4885420ED0FC4885420BD011
:10483000FB48854208D0FB48854205D0FA488542AE
:1048400002D0FA48854200D105E040F25711AFF29C
:104850009400FBF71DFD012C25D0022C23D0042C45
:1048600021D0082C1FD0102C1DD0202C1BD0402C68
:1048700019D0802C17D0B4F5807F14D0B4F5007F08
:1048800011D0B4F5806F0ED0B4F5006F0BD0B4F535
:10489000805F08D0B4F5005F05D0B4F5804F02D03A
:1048A000B4F5004F00D105E04FF4AC71AFF2F40065
:1048B000FBF7EEFC6869204008B1012600E0002605
:1048C000304670BD10B50446D048844217D0D04859
:1048D000844214D0CF48844211D0CF4884420ED0B5
:1048E000CE4884420BD0CE48844208D0CD48844282
:1048F00005D0CD48844202D0CC48844200D105E0A6
:1049000040F26D11AFF24C10FBF7C2FC606980B24F
:1049100010BD70B504460D46BC48844217D0BC4853
:10492000844214D0BB48844211D0BB4884420ED08C
:10493000BA4884420BD0BA48844208D0B94884426D
:1049400005D0B948844202D0B848844200D105E07D
:1049500040F27F11AFF29C10FBF79AFC002008B9DF
:1049600005B105E04FF4C071AFF2B010FBF790FC59
:10497000258370BD70B504460D46A448844217D007
:10498000A348844214D0A348844211D0A248844250
:104990000ED0A24884420BD0A148844208D0A1483E
:1049A000844205D0A048844202D0A048844200D16D
:1049B00005E04FF4C971AFF2FC10FBF769FC002071
:1049C00008B905B105E040F29311AFF21020FBF7F2
:1049D0005FFC658370BD70B505460C4616468B4876
:1049E000854217D08A48854214D08A48854211D022
:1049F000894885420ED0894885420BD08848854237
:104A000008D08848854205D08748854202D087482B
:104A1000854200D105E04FF4D371AFF26020FBF77F
:104A200037FC012C25D0022C23D0042C21D0082CBB
:104A30001FD0102C1DD0202C1BD0402C19D0802C26
:104A400017D0B4F5807F14D0B4F5007F11D0B4F541
:104A5000806F0ED0B4F5006F0BD0B4F5805F08D036
:104A6000B4F5005F05D0B4F5804F02D0B4F5004F27
:104A700000D105E040F2A711AFF2C020FBF708FC1F
:104A80000EB1012E00D105E04FF4D471AFF2D42065
:104A9000FBF7FEFB0EB12C8300E06C8370BD70B59C
:104AA00004460D465948844217D05948844214D0D0
:104AB0005848844211D0584884420ED05748844206
:104AC0000BD05748844208D05648844205D05648F7
:104AD000844202D05548844200D105E040F2BD1125
:104AE000AFF22830FBF7D4FB656170BD70B50446AA
:104AF0000D464648844217D04548844214D0454864
:104B0000844211D0444884420ED0444884420BD0A1
:104B10004348844208D04348844205D042488442F6
:104B200002D04248844200D105E040F2CB11AFF2FE
:104B30007430FBF7ADFB60696840606170BD2DE9C2
:104B4000F04106460D4614460027B8462F488642D7
:104B500017D02F48864214D02E48864211D02E48B6
:104B600086420ED02D4886420BD02D48864208D072
:104B70002C48864205D02C48864202D02B488642DB
:104B800000D105E040F21721AFF2D030FBF780FBF7
:104B9000EDB1012D1BD0022D19D0032D17D0042DFE
:104BA00015D0052D13D0062D11D0072D0FD0082DAF
:104BB0000DD0092D0BD00A2D09D00B2D07D00C2DAF
:104BC00005D00D2D03D00E2D01D00F2D00D105E005
:104BD0004FF40671AFF21C40FBF75AFB44B3092CAB
:104BE00045D02CB324B31CB314B3012C3FD03ED01A
:104BF000022C3CD03BD03AD0032C38D0042C36D0F9
:104C000035D034D0052C32D031D012E00000024033
:104C10000004024000080240000C02400010024064
:104C20000014024000180240001C02400020024014
:104C30001DE0092C1BD0062C19D0092C17D0072CED
:104C400015D014D013D0082C11D010D00FD0092CAF
:104C50000DD00CD00A2C0AD009D00B2C07D00C2C6C
:104C600005D004D003D00D2C01D00F2C00D105E0CD
:104C700040F21921AFF2BC40FBF70AFB6807C00EF7
:104C800004FA00F7E91006F1200050F82100690746
:104C9000CA0E0F2191408843EA1006F1200141F825
:104CA0002200E91006F1200050F8210040EA070830
:104CB000E91006F1200040F82180BDE8F0810000F5
:104CC00010B5044645F25550844200D004B903E0C3
:104CD000842124A0FBF7DCFA3148046010BD10B534
:104CE00004465CB1012C09D0022C07D0032C05D05E
:104CF000042C03D0052C01D0062C00D103E0982110
:104D000018A0FBF7C5FA2648446010BD10B504464C
:104D1000B4F5805F00DA03E0A52112A0FBF7B8FA32
:104D20001F48846010BD4AF6AA201D4908607047DC
:104D30004CF6CC401A490860704770B5044600250F
:104D4000012C01D0022C00D103E0EA2105A0FBF7E1
:104D50009FFA1348C068204008B1012500E00025F3
:104D6000284670BD4C69627261726965735C535408
:104D70004D3332463478785F53746450657269708D
:104D8000685F4472697665725C7372635C73746D9C
:104D90003332663478785F697764672E6300000089
:104DA00000300040F948006840F00100F749086011
:104DB0000020F64908310860F4480068F4490840CA
:104DC000F2490860F348091D0860081F006820F4D4
:104DD0008020091F08600020EC490C3108607047F2
:104DE00010B504461CB1012C01D0052C00D103E004
:104DF000F021E9A0FBF74CFA0020E449891C087077
:104E00000846047010BD2DE9F04104460025002637
:104E10000027212C17D0312C15D0392C13D0412C40
:104E200011D0612C0FD0792C0DD07A2C0BD07B2C8B
:104E300009D07C2C07D07D2C05D07E2C03D07F2C74
:104E400001D03B2C00D104E040F29C61D2A0FBF7E2
:104E50001FFA6511012D02D1CC48066808E0022D29
:104E600003D1CA487030066802E0C848743006684A
:104E700004F01F050120A840304008B1012700E0E0
:104E800000273846BDE8F08138B5002000900024A6
:104E9000002500BF3120FFF7B6FF05460098401CF3
:104EA00000900098B0F5A06F01D0002DF2D0312015
:104EB000FFF7A9FF08B1012400E00024204638BD17
:104EC00070B5044600251F2C00DC04E04FF49471FB
:104ED000B1A0FBF7DDF9AD48056825F0F80545EA16
:104EE000C405056070BD10B504460CB1012C00D19D
:104EF00004E040F24B11A8A0FBF7CAF9B5480460E2
:104F000010BD10B504461CB1012C01D0042C00D1F9
:104F100004E04FF4B271A0A0FBF7BAF900209B495E
:104F2000703108700870012C02D0042C0AD104E002
:104F3000012096497031087005E0052093497031D1
:104F4000087000E000BF00BF10BD10B504460CB1F2
:104F5000012C00D104E04FF4C6718FA0FBF798F943
:104F60009D48046010BD2DE9F04105460F461646E8
:104F70001C46DDF8188015B1B5F5800F00D104E0AE
:104F800040F2B71184A0FBF783F93F2F00D804E06B
:104F90004FF4DC7180A0FBF77BF9C02E03D3B6F58C
:104FA000D87F00D804E040F2B9117BA0FBF770F97C
:104FB000022C05D0042C03D0062C01D0082C00D1E3
:104FC00004E04FF4DD7174A0FBF762F9B8F1040F4F
:104FD00003D3B8F10F0F00D804E040F2BB116EA06C
:104FE000FBF756F947EA86100121C1EB540140EA6C
:104FF0000140284340EA08606449091D0860BDE893
:10500000F08110B504460CB1012C00D104E04FF43E
:10501000E77161A0FBF73CF96E48046610BD70B5FE
:1050200005460C46C02D03D3B5F5D87F00D804E063
:105030004FF4F47158A0FBF72BF9022C02D3072C84
:1050400000D804E040F2E91153A0FBF721F9A801D0
:1050500040EA04704D498431086070BD10B50446C3
:105060000CB1012C00D104E040F2F7114AA0FBF78B
:105070000FF95848846610BD10B504460CB1012CD8
:1050800000D104E040F2092143A0FBF701F95148A7
:10509000C46410BD70B505460C46002645B1B5F593
:1050A000001F05D0B5F5800F02D0B5F5C00F00D1B7
:1050B00004E04FF4097138A0FBF7EAF85CB1B4F1F1
:1050C000806F08D0B4F1A06F05D0B4F1C06F02D0EA
:1050D000B4F1E06F00D104E040F225212EA0FBF7EF
:1050E000D7F82A480830066826F0EC6645EA04003E
:1050F000064326480830066070BD70B505460C466C
:10510000002645B1B5F1804F05D0B5F1004F02D072
:10511000B5F1404F00D104E040F24A211EA0FBF758
:10512000B7F85CB1B4F1005F08D0B4F1205F05D0EE
:10513000B4F1405F02D0B4F1605F00D104E040F20E
:105140004B2115A0FBF7A4F810480830066826F09C
:10515000784645EA040006430C480830066070BDF6
:1051600070B5044600251CB1012C01D0022C00D1E1
:1051700004E04FF42D7108A0FBF78AF803480830CB
:10518000056825F003052543056070BD0038024021
:10519000FFFFF6FE103000244C696272617269658F
:1051A000735C53544D3332463478785F5374645093
:1051B00065726970685F4472697665725C73726368
:1051C0005C73746D3332663478785F7263632E6318
:1051D0000000000000004742800E4742F948006886
:1051E00000F00C00704770B5044600257CB1802C9F
:1051F0000DD0902C0BD0A02C09D0B02C07D0C02CF7
:1052000005D0D02C03D0E02C01D0F02C00D105E04B
:1052100040F2E921AFF28000FBF73AF8E94805686F
:1052200025F0F0052543056070BD70B504460025E6
:105230005CB1B4F5805F08D0B4F5A05F05D0B4F5DB
:10524000C05F02D0B4F5E05F00D105E040F2093163
:10525000AFF2BC00FBF71CF8DA48056825F4E0550E
:105260002543056070BD70B5044600255CB1B4F5FA
:10527000805F08D0B4F5A05F05D0B4F5C05F02D060
:10528000B4F5E05F00D105E04FF44A71AFF2F800E9
:10529000FAF7FEFFCB48056825F4604545EAC405EA
:1052A000056070BDF0B50021002200240225002613
:1052B0000223C44F3F6807F00C0121B1042905D037
:1052C000082937D105E0C04F076036E0BF4F0760BF
:1052D00033E0BC4F3F1F3F68C7F38056B94F3F1FB5
:1052E0003F6807F03F036EB1B84FB7FBF3F7DFF845
:1052F000D4C2ACF1040CDCF800C0CCF3881C07FB72
:105300000CF40CE0B04FB7FBF3F7DFF8B8C2ACF128
:10531000040CDCF800C0CCF3881C07FB0CF4A94F8C
:105320003F1F3F68C7F301477F1C7D00B4FBF5F7C3
:10533000076002E0A44F076000BF00BFA14F3F68B5
:1053400007F0F0010909A24F7A5C0768D74047606F
:105350009C4F3F6807F4E051890A9D4F7A5C47688B
:10536000D7408760974F3F6807F46041490B984FDB
:105370007A5C4768D740C760F0BD70B50446002529
:10538000B4F5807F5CD0B4F5007F59D09148844259
:1053900056D09148844253D09048844250D090488F
:1053A00084424DD08F4884424AD08F48844247D0AF
:1053B0008E48844244D08E48844241D08D488442F5
:1053C0003ED08D4884423BD08C48844238D08C48B3
:1053D000844235D08B48844232D08B4884422FD0CF
:1053E0008A4884422CD08A48844229D08948844201
:1053F00026D08948844223D08848844220D08848D7
:1054000084421DD0874884421AD08748844217D0EE
:105410008648844214D08648844211D0854884420C
:105420000ED0854884420BD08448844208D08448FA
:10543000844205D08348844202D08348844200D10C
:1054400005E040F2D931AFF2B020FAF721FF04F4C1
:105450004070B0F5407F09D15A48056825F4F81529
:105460007A4904EA0100054356480560554868300A
:105470000068C4F30B01084352496831086070BDED
:1054800010B504460CB1012C00D105E040F2F73113
:10549000AFF2FC20FAF7FCFE6D48046010BD10B5B9
:1054A00004460CB1012C00D105E04FF48161AFF24C
:1054B0001830FAF7EDFE6648001D046010BD10B507
:1054C00004460CB1012C00D105E040F21941AFF2C5
:1054D0003830FAF7DDFE5F48046010BD70B5044651
:1054E0000D465D48204008B904B105E04FF48861DD
:1054F000AFF25C30FAF7CCFE0DB1012D00D105E022
:1055000040F24241AFF27030FAF7C2FE3DB12D4891
:105510002830006820432B492831086006E02948DC
:1055200028300068A04327492831086070BD70B555
:1055300004460D4624F0F10008B904B105E04FF42B
:105540008C61AFF2AC30FAF7A3FE0DB1012D00D1A2
:1055500005E040F26141AFF2C030FAF799FE3DB18B
:1055600018482C300068204316492C31086006E0AA
:1055700014482C300068A04312492C31086070BDDB
:1055800070B504460D4624F0010008B904B105E0E9
:1055900040F27B41AFF20040FAF77AFE0DB1012DE7
:1055A00000D105E040F27C41AFF21440FAF770FE02
:1055B0003DB1044830300068204302493031086072
:1055C00051E04BE0083802400024F40040787D01AF
:1055D0002800002000030200000303000003040071
:1055E0000003050000030600000307000003080095
:1055F0000003090000030A0000030B0000030C0075
:1056000000030D0000030E0000030F000003100054
:105610000003110000031200000313000003140034
:105620000003150000031600000317000003180014
:105630000003190000031A0000031B0000031C00F4
:1056400000031D0000031E0000031F00FFFCFF0FEE
:105650003C0E47425C01474200EE8B81F8480068EF
:10566000A043F749086070BD70B504460D46F54883
:10567000204008B904B105E040F2AD41AFF2E84086
:10568000FAF706FE0DB1012D00D105E040F2AE4162
:10569000AFF2FC40FAF7FCFD3DB1E9480830006884
:1056A0002043E7490831086006E0E5480830006813
:1056B000A043E3490831086070BD70B504460D464B
:1056C000E148204008B904B105E040F2D541AFF20D
:1056D0003850FAF7DDFD0DB1012D00D105E040F2A3
:1056E000D641AFF24C50FAF7D3FD3DB1D4480C305F
:1056F00000682043D2490C31086006E0D0480C30E5
:105700000068A043CE490C31086070BD70B50446F6
:105710000D46CE48204008B904B105E040F2FC41F6
:10572000AFF28C50FAF7B4FD0DB1012D00D105E0B8
:1057300040F2FD41AFF2A050FAF7AAFD3DB1C048DA
:10574000283800682043BE492839086006E0BC4874
:1057500028380068A043BA492839086070BD70B580
:1057600004460D4624F0F10008B904B105E040F20A
:105770001951AFF2DC50FAF78BFD0DB1012D00D1BC
:1057800005E040F21A51AFF2F050FAF781FD3DB159
:10579000AB48243800682043A9492439086006E052
:1057A000A74824380068A043A5492439086070BD83
:1057B00070B504460D4624F0010008B904B105E0B7
:1057C00040F23151AFF23060FAF762FD0DB1012DB8
:1057D00000D105E040F23251AFF24460FAF758FDD3
:1057E0003DB197482038006820439549203908602A
:1057F00006E0934820380068A043914920390860AA
:1058000070BD70B504460D468E48204008B904B1FD
:1058100005E04FF4AC61AFF28060FAF739FD0DB1ED
:10582000012D00D105E040F26151AFF29460FAF72A
:105830002FFD3DB18248183800682043804918394F
:10584000086006E07E4818380068A0437C49183993
:10585000086070BD70B504460D467D48204008B90B
:1058600004B105E040F28451AFF2D460FAF710FDC4
:105870000DB1012D00D105E040F28551AFF2E86095
:10588000FAF706FD3DB16E481438006820436C49B4
:105890001439086006E06A4814380068A043684973
:1058A0001439086070BD70B504460D466948204043
:1058B00008B904B105E040F2B251AFF22470FAF732
:1058C000E7FC0DB1012D00D105E040F2B351AFF27C
:1058D0003870FAF7DDFC3DB15948183000682043B4
:1058E00057491831086006E0554818300068A04351
:1058F00053491831086070BD70B504460D4624F058
:10590000F10008B904B105E040F2D251AFF278706D
:10591000FAF7BEFC0DB1012D00D105E040F2D351E4
:10592000AFF28C70FAF7B4FC3DB145481C3000680A
:10593000204343491C31086006E041481C300068A0
:10594000A0433F491C31086070BD70B504460D4648
:1059500024F0010008B904B105E040F2ED51AFF2C6
:10596000C870FAF795FC0DB1012D00D105E040F2A9
:10597000EE51AFF2DC70FAF78BFC3DB130482030CD
:10598000006820432E492031086006E02C48203072
:105990000068A0432A492031086070BD70B50446F4
:1059A0000D462848204008B904B105E040F21F61C7
:1059B000AFF61C00FAF76CFC0DB1012D00D105E02B
:1059C0004FF4C461AFF63000FAF762FC3DB11C48F9
:1059D0002830006820431A492831086006E018483A
:1059E00028300068A04316492831086070BD70B5A2
:1059F00004460D461448204008B904B105E040F2C1
:105A00004761AFF66C00FAF743FC0DB1012D00D1F0
:105A100005E04FF4C961AFF68000FAF739FC3DB1FB
:105A200007482C300068204305492C31086006E007
:105A300003482C300068A04301492C31086070BD38
:105A400038380240003601C9CCA0F8FF00EE9FDDD7
:105A5000CCA6F8FF006E988170B504460D4604F0A0
:105A6000C00008B904B105E040F27461AFF6D80097
:105A7000FAF70EFC0DB1012D00D105E040F2756181
:105A8000AFF6EC00FAF704FC2DB12448007820436F
:105A90002249087004E021480078A0431F4908709B
:105AA00070BD1E486730006840F080701B49673148
:105AB0000860704770B504460025012C0BD0022CFD
:105AC00009D0042C07D0082C05D0102C03D0802C32
:105AD00001D0202C00D105E040F2DA61AFF6481089
